{
	"TicTacToe.sol": {
		"TicTacToe": {
			"abi": [
				{
					"anonymous": false,
					"inputs": [
						{
							"indexed": false,
							"internalType": "uint256",
							"name": "gameId",
							"type": "uint256"
						}
					],
					"name": "GameCreated",
					"type": "event"
				},
				{
					"anonymous": false,
					"inputs": [
						{
							"indexed": false,
							"internalType": "uint256",
							"name": "gameId",
							"type": "uint256"
						},
						{
							"indexed": false,
							"internalType": "enum TicTacToe.Player",
							"name": "winner",
							"type": "uint8"
						}
					],
					"name": "GameOver",
					"type": "event"
				},
				{
					"anonymous": false,
					"inputs": [
						{
							"indexed": false,
							"internalType": "uint256",
							"name": "gameId",
							"type": "uint256"
						},
						{
							"indexed": false,
							"internalType": "uint256",
							"name": "position",
							"type": "uint256"
						},
						{
							"indexed": false,
							"internalType": "enum TicTacToe.Player",
							"name": "player",
							"type": "uint8"
						}
					],
					"name": "MoveMade",
					"type": "event"
				},
				{
					"inputs": [],
					"name": "createGame",
					"outputs": [
						{
							"internalType": "uint256",
							"name": "gameId",
							"type": "uint256"
						}
					],
					"stateMutability": "nonpayable",
					"type": "function"
				},
				{
					"inputs": [
						{
							"internalType": "uint256",
							"name": "",
							"type": "uint256"
						}
					],
					"name": "games",
					"outputs": [
						{
							"internalType": "enum TicTacToe.Player",
							"name": "currentPlayer",
							"type": "uint8"
						},
						{
							"internalType": "enum TicTacToe.Player",
							"name": "winner",
							"type": "uint8"
						}
					],
					"stateMutability": "view",
					"type": "function"
				},
				{
					"inputs": [
						{
							"internalType": "uint256",
							"name": "gameId",
							"type": "uint256"
						}
					],
					"name": "getBoard",
					"outputs": [
						{
							"internalType": "enum TicTacToe.Player[]",
							"name": "",
							"type": "uint8[]"
						}
					],
					"stateMutability": "view",
					"type": "function"
				},
				{
					"inputs": [
						{
							"internalType": "uint256",
							"name": "gameId",
							"type": "uint256"
						}
					],
					"name": "getCurrentPlayer",
					"outputs": [
						{
							"internalType": "enum TicTacToe.Player",
							"name": "",
							"type": "uint8"
						}
					],
					"stateMutability": "view",
					"type": "function"
				},
				{
					"inputs": [
						{
							"internalType": "uint256",
							"name": "gameId",
							"type": "uint256"
						}
					],
					"name": "getWinner",
					"outputs": [
						{
							"internalType": "enum TicTacToe.Player",
							"name": "",
							"type": "uint8"
						}
					],
					"stateMutability": "view",
					"type": "function"
				},
				{
					"inputs": [
						{
							"internalType": "uint256",
							"name": "gameId",
							"type": "uint256"
						},
						{
							"internalType": "uint256",
							"name": "position",
							"type": "uint256"
						}
					],
					"name": "makeMove",
					"outputs": [],
					"stateMutability": "nonpayable",
					"type": "function"
				}
			],
			"devdoc": {
				"kind": "dev",
				"methods": {},
				"version": 1
			},
			"evm": {
				"assembly": "    /* \"TicTacToe.sol\":57:4454  contract TicTacToe {... */\n  mstore(0x40, 0x80)\n  callvalue\n  dup1\n  iszero\n  tag_1\n  jumpi\n  0x00\n  dup1\n  revert\ntag_1:\n  pop\n  dataSize(sub_0)\n  dup1\n  dataOffset(sub_0)\n  0x00\n  codecopy\n  0x00\n  return\nstop\n\nsub_0: assembly {\n        /* \"TicTacToe.sol\":57:4454  contract TicTacToe {... */\n      mstore(0x40, 0x80)\n      callvalue\n      dup1\n      iszero\n      tag_1\n      jumpi\n      0x00\n      dup1\n      revert\n    tag_1:\n      pop\n      jumpi(tag_2, lt(calldatasize, 0x04))\n      shr(0xe0, calldataload(0x00))\n      dup1\n      0x117a5b90\n      eq\n      tag_3\n      jumpi\n      dup1\n      0x26638631\n      eq\n      tag_4\n      jumpi\n      dup1\n      0x4129b2c9\n      eq\n      tag_5\n      jumpi\n      dup1\n      0x45e09e54\n      eq\n      tag_6\n      jumpi\n      dup1\n      0x7255d729\n      eq\n      tag_7\n      jumpi\n      dup1\n      0xdea9456d\n      eq\n      tag_8\n      jumpi\n    tag_2:\n      0x00\n      dup1\n      revert\n        /* \"TicTacToe.sol\":254:291  mapping(uint256 => Game) public games */\n    tag_3:\n      tag_9\n      tag_10\n      calldatasize\n      0x04\n      tag_11\n      jump\t// in\n    tag_10:\n      0x00\n      0x20\n      dup2\n      swap1\n      mstore\n      swap1\n      dup2\n      mstore\n      0x40\n      swap1\n      keccak256\n      0x01\n      add\n      sload\n      0xff\n      dup1\n      dup3\n      and\n      swap2\n      0x0100\n      swap1\n      div\n      and\n      dup3\n      jump\n    tag_9:\n      mload(0x40)\n      tag_13\n      swap3\n      swap2\n      swap1\n      tag_14\n      jump\t// in\n    tag_13:\n      mload(0x40)\n      dup1\n      swap2\n      sub\n      swap1\n      return\n        /* \"TicTacToe.sol\":4216:4338  function getCurrentPlayer(uint256 gameId) public view returns (Player) {... */\n    tag_4:\n      tag_15\n      tag_16\n      calldatasize\n      0x04\n      tag_11\n      jump\t// in\n    tag_16:\n        /* \"TicTacToe.sol\":4279:4285  Player */\n      0x00\n        /* \"TicTacToe.sol\":4304:4317  games[gameId] */\n      swap1\n      dup2\n      mstore\n      0x20\n      dup2\n      swap1\n      mstore\n      0x40\n      swap1\n      keccak256\n        /* \"TicTacToe.sol\":4304:4331  games[gameId].currentPlayer */\n      0x01\n      add\n      sload\n      0xff\n      and\n      swap1\n        /* \"TicTacToe.sol\":4216:4338  function getCurrentPlayer(uint256 gameId) public view returns (Player) {... */\n      jump\n    tag_15:\n      mload(0x40)\n      tag_13\n      swap2\n      swap1\n      tag_19\n      jump\t// in\n        /* \"TicTacToe.sol\":4344:4452  function getWinner(uint256 gameId) public view returns (Player) {... */\n    tag_5:\n      tag_15\n      tag_21\n      calldatasize\n      0x04\n      tag_11\n      jump\t// in\n    tag_21:\n        /* \"TicTacToe.sol\":4400:4406  Player */\n      0x00\n        /* \"TicTacToe.sol\":4425:4438  games[gameId] */\n      swap1\n      dup2\n      mstore\n      0x20\n      dup2\n      swap1\n      mstore\n      0x40\n      swap1\n      keccak256\n        /* \"TicTacToe.sol\":4425:4445  games[gameId].winner */\n      0x01\n      add\n      sload\n      0x0100\n      swap1\n      div\n      0xff\n      and\n      swap1\n        /* \"TicTacToe.sol\":4344:4452  function getWinner(uint256 gameId) public view returns (Player) {... */\n      jump\n        /* \"TicTacToe.sol\":4095:4210  function getBoard(uint256 gameId) public view returns (Player[] memory) {... */\n    tag_6:\n      tag_24\n      tag_25\n      calldatasize\n      0x04\n      tag_11\n      jump\t// in\n    tag_25:\n      tag_26\n      jump\t// in\n    tag_24:\n      mload(0x40)\n      tag_13\n      swap2\n      swap1\n      tag_28\n      jump\t// in\n        /* \"TicTacToe.sol\":459:945  function createGame() public returns (uint256 gameId) {... */\n    tag_7:\n      tag_29\n      tag_30\n      jump\t// in\n    tag_29:\n      mload(0x40)\n        /* \"#utility.yul\":1876:1901   */\n      swap1\n      dup2\n      mstore\n        /* \"#utility.yul\":1864:1866   */\n      0x20\n        /* \"#utility.yul\":1849:1867   */\n      add\n        /* \"TicTacToe.sol\":459:945  function createGame() public returns (uint256 gameId) {... */\n      tag_13\n        /* \"#utility.yul\":1730:1907   */\n      jump\n        /* \"TicTacToe.sol\":951:1934  function makeMove(uint256 gameId, uint256 position) public {... */\n    tag_8:\n      tag_33\n      tag_34\n      calldatasize\n      0x04\n      tag_35\n      jump\t// in\n    tag_34:\n      tag_36\n      jump\t// in\n    tag_33:\n      stop\n        /* \"TicTacToe.sol\":4095:4210  function getBoard(uint256 gameId) public view returns (Player[] memory) {... */\n    tag_26:\n        /* \"TicTacToe.sol\":4184:4189  games */\n      0x00\n        /* \"TicTacToe.sol\":4184:4197  games[gameId] */\n      dup2\n      dup2\n      mstore\n      0x20\n      dup2\n      dup2\n      mstore\n      0x40\n      swap2\n      dup3\n      swap1\n      keccak256\n        /* \"TicTacToe.sol\":4177:4203  return games[gameId].board */\n      dup1\n      sload\n      dup4\n      mload\n      dup2\n      dup5\n      mul\n      dup2\n      add\n      dup5\n      add\n      swap1\n      swap5\n      mstore\n      dup1\n      dup5\n      mstore\n        /* \"TicTacToe.sol\":4150:4165  Player[] memory */\n      0x60\n      swap4\n        /* \"TicTacToe.sol\":4177:4203  return games[gameId].board */\n      swap3\n      dup4\n      add\n        /* \"TicTacToe.sol\":4184:4197  games[gameId] */\n      dup3\n        /* \"TicTacToe.sol\":4177:4203  return games[gameId].board */\n      dup3\n      dup1\n      iszero\n      tag_40\n      jumpi\n      0x20\n      mul\n      dup3\n      add\n      swap2\n      swap1\n      0x00\n      mstore\n      keccak256(0x00, 0x20)\n      swap1\n      0x00\n      swap1\n    tag_41:\n      dup3\n      dup3\n      swap1\n      sload\n      swap1\n      0x0100\n      exp\n      swap1\n      div\n      0xff\n      and\n      0x02\n      dup2\n      gt\n      iszero\n      tag_43\n      jumpi\n      tag_43\n      tag_44\n      jump\t// in\n    tag_43:\n      dup2\n      mstore\n      0x20\n      0x01\n      swap3\n      dup4\n      add\n      dup2\n      dup2\n      div\n      swap5\n      dup6\n      add\n      swap5\n      swap1\n      swap4\n      sub\n      swap1\n      swap3\n      mul\n      swap2\n      add\n      dup1\n      dup5\n      gt\n      tag_41\n      jumpi\n      swap1\n      pop\n    tag_40:\n      pop\n      pop\n      pop\n      pop\n      pop\n      swap1\n      pop\n        /* \"TicTacToe.sol\":4095:4210  function getBoard(uint256 gameId) public view returns (Player[] memory) {... */\n      swap2\n      swap1\n      pop\n      jump\t// out\n        /* \"TicTacToe.sol\":459:945  function createGame() public returns (uint256 gameId) {... */\n    tag_30:\n        /* \"TicTacToe.sol\":497:511  uint256 gameId */\n      0x00\n        /* \"TicTacToe.sol\":567:582  block.timestamp */\n      timestamp\n        /* \"TicTacToe.sol\":584:594  msg.sender */\n      caller\n        /* \"TicTacToe.sol\":550:595  abi.encodePacked(block.timestamp, msg.sender) */\n      add(0x20, mload(0x40))\n      tag_46\n      swap3\n      swap2\n      swap1\n        /* \"#utility.yul\":2322:2341   */\n      swap2\n      dup3\n      mstore\n        /* \"#utility.yul\":2379:2381   */\n      0x60\n        /* \"#utility.yul\":2375:2390   */\n      shl\n      not(0xffffffffffffffffffffffff)\n        /* \"#utility.yul\":2371:2424   */\n      and\n        /* \"#utility.yul\":2366:2368   */\n      0x20\n        /* \"#utility.yul\":2357:2369   */\n      dup3\n      add\n        /* \"#utility.yul\":2350:2425   */\n      mstore\n        /* \"#utility.yul\":2450:2452   */\n      0x34\n        /* \"#utility.yul\":2441:2453   */\n      add\n      swap1\n        /* \"#utility.yul\":2165:2459   */\n      jump\n        /* \"TicTacToe.sol\":550:595  abi.encodePacked(block.timestamp, msg.sender) */\n    tag_46:\n      0x40\n      dup1\n      mload\n      not(0x1f)\n      dup2\n      dup5\n      sub\n      add\n      dup2\n      mstore\n      dup3\n      dup3\n      mstore\n        /* \"TicTacToe.sol\":540:596  keccak256(abi.encodePacked(block.timestamp, msg.sender)) */\n      dup1\n      mload\n        /* \"TicTacToe.sol\":550:595  abi.encodePacked(block.timestamp, msg.sender) */\n      0x20\n        /* \"TicTacToe.sol\":540:596  keccak256(abi.encodePacked(block.timestamp, msg.sender)) */\n      swap1\n      swap2\n      add\n      keccak256\n        /* \"TicTacToe.sol\":663:664  9 */\n      0x09\n        /* \"TicTacToe.sol\":624:777  Game({... */\n      0x60\n      dup5\n      add\n        /* \"TicTacToe.sol\":650:665  new Player[](9) */\n      dup2\n      dup2\n      mstore\n      0x01a0\n      dup6\n      add\n      swap1\n      swap4\n      mstore\n        /* \"TicTacToe.sol\":540:596  keccak256(abi.encodePacked(block.timestamp, msg.sender)) */\n      swap1\n      swap4\n      pop\n        /* \"TicTacToe.sol\":550:595  abi.encodePacked(block.timestamp, msg.sender) */\n      dup3\n      swap2\n        /* \"TicTacToe.sol\":624:777  Game({... */\n      swap1\n        /* \"TicTacToe.sol\":650:665  new Player[](9) */\n      0x80\n      dup4\n      add\n      0x0120\n      dup1\n      calldatasize\n      dup4\n      calldatacopy\n      add\n      swap1\n      pop\n      pop\n        /* \"TicTacToe.sol\":624:777  Game({... */\n      dup2\n      mstore\n      0x20\n      add\n        /* \"TicTacToe.sol\":725:733  Player.X */\n      0x00\n        /* \"TicTacToe.sol\":624:777  Game({... */\n      dup2\n      mstore\n      0x20\n      add\n        /* \"TicTacToe.sol\":755:766  Player.None */\n      0x02\n        /* \"TicTacToe.sol\":624:777  Game({... */\n      swap1\n      mstore\n        /* \"TicTacToe.sol\":608:613  games */\n      0x00\n        /* \"TicTacToe.sol\":608:621  games[gameId] */\n      dup3\n      dup2\n      mstore\n      0x20\n      dup2\n      dup2\n      mstore\n      0x40\n      swap1\n      swap2\n      keccak256\n        /* \"TicTacToe.sol\":608:777  games[gameId] = Game({... */\n      dup3\n      mload\n      dup1\n      mload\n        /* \"TicTacToe.sol\":608:621  games[gameId] */\n      swap2\n      swap3\n        /* \"TicTacToe.sol\":608:777  games[gameId] = Game({... */\n      tag_56\n      swap3\n        /* \"TicTacToe.sol\":608:621  games[gameId] */\n      dup5\n      swap3\n        /* \"TicTacToe.sol\":608:777  games[gameId] = Game({... */\n      swap1\n      swap2\n      add\n      swap1\n      tag_57\n      jump\t// in\n    tag_56:\n      pop\n      0x20\n      dup3\n      add\n      mload\n      0x01\n      dup1\n      dup4\n      add\n      dup1\n      sload\n      swap1\n      swap2\n      not(0xff)\n      swap1\n      swap2\n      and\n      swap1\n      dup4\n      0x02\n      dup2\n      gt\n      iszero\n      tag_59\n      jumpi\n      tag_59\n      tag_44\n      jump\t// in\n    tag_59:\n      mul\n      or\n      swap1\n      sstore\n      pop\n      0x40\n      dup3\n      add\n      mload\n      0x01\n      dup3\n      add\n      dup1\n      sload\n      not(0xff00)\n      and\n      0x0100\n      dup4\n      0x02\n      dup2\n      gt\n      iszero\n      tag_61\n      jumpi\n      tag_61\n      tag_44\n      jump\t// in\n    tag_61:\n      mul\n      or\n      swap1\n      sstore\n      pop\n      swap1\n      pop\n      pop\n        /* \"TicTacToe.sol\":793:802  uint256 i */\n      0x00\n        /* \"TicTacToe.sol\":788:881  for (uint256 i = 0; i < 9; i++) {... */\n    tag_62:\n        /* \"TicTacToe.sol\":812:813  9 */\n      0x09\n        /* \"TicTacToe.sol\":808:809  i */\n      dup2\n        /* \"TicTacToe.sol\":808:813  i < 9 */\n      lt\n        /* \"TicTacToe.sol\":788:881  for (uint256 i = 0; i < 9; i++) {... */\n      iszero\n      tag_63\n      jumpi\n        /* \"TicTacToe.sol\":834:839  games */\n      0x00\n        /* \"TicTacToe.sol\":834:847  games[gameId] */\n      dup3\n      dup2\n      mstore\n      0x20\n      dup2\n      swap1\n      mstore\n      0x40\n      swap1\n      keccak256\n        /* \"TicTacToe.sol\":834:856  games[gameId].board[i] */\n      dup1\n      sload\n        /* \"TicTacToe.sol\":859:870  Player.None */\n      0x02\n      swap2\n        /* \"TicTacToe.sol\":834:847  games[gameId] */\n      swap1\n        /* \"TicTacToe.sol\":854:855  i */\n      dup4\n      swap1\n        /* \"TicTacToe.sol\":834:856  games[gameId].board[i] */\n      dup2\n      lt\n      tag_66\n      jumpi\n      tag_66\n      tag_67\n      jump\t// in\n    tag_66:\n      swap1\n      0x00\n      mstore\n      keccak256(0x00, 0x20)\n      swap1\n      0x20\n      swap2\n      dup3\n      dup3\n      div\n      add\n      swap2\n      swap1\n      mod\n        /* \"TicTacToe.sol\":834:870  games[gameId].board[i] = Player.None */\n      0x0100\n      exp\n      dup2\n      sload\n      dup2\n      0xff\n      mul\n      not\n      and\n      swap1\n      dup4\n      0x02\n      dup2\n      gt\n      iszero\n      tag_70\n      jumpi\n      tag_70\n      tag_44\n      jump\t// in\n    tag_70:\n      mul\n      or\n      swap1\n      sstore\n      pop\n        /* \"TicTacToe.sol\":815:818  i++ */\n      dup1\n      tag_71\n      dup2\n      tag_72\n      jump\t// in\n    tag_71:\n      swap2\n      pop\n      pop\n        /* \"TicTacToe.sol\":788:881  for (uint256 i = 0; i < 9; i++) {... */\n      jump(tag_62)\n    tag_63:\n      pop\n        /* \"TicTacToe.sol\":896:915  GameCreated(gameId) */\n      mload(0x40)\n        /* \"#utility.yul\":1876:1901   */\n      dup2\n      dup2\n      mstore\n        /* \"TicTacToe.sol\":896:915  GameCreated(gameId) */\n      0xbd19c47e9925eb6f7be8bb1c13a841e0240aaeaf17f217e90022e9c8eb66877f\n      swap1\n        /* \"#utility.yul\":1864:1866   */\n      0x20\n        /* \"#utility.yul\":1849:1867   */\n      add\n        /* \"TicTacToe.sol\":896:915  GameCreated(gameId) */\n      mload(0x40)\n      dup1\n      swap2\n      sub\n      swap1\n      log1\n        /* \"TicTacToe.sol\":459:945  function createGame() public returns (uint256 gameId) {... */\n      swap1\n      jump\t// out\n        /* \"TicTacToe.sol\":951:1934  function makeMove(uint256 gameId, uint256 position) public {... */\n    tag_36:\n        /* \"TicTacToe.sol\":1056:1057  9 */\n      0x09\n        /* \"TicTacToe.sol\":1045:1053  position */\n      dup2\n        /* \"TicTacToe.sol\":1045:1057  position < 9 */\n      lt\n        /* \"TicTacToe.sol\":1020:1078  require(position >= 0 && position < 9, \"Invalid position\") */\n      tag_76\n      jumpi\n      mload(0x40)\n      shl(0xe5, 0x461bcd)\n      dup2\n      mstore\n        /* \"#utility.yul\":3202:3204   */\n      0x20\n        /* \"TicTacToe.sol\":1020:1078  require(position >= 0 && position < 9, \"Invalid position\") */\n      0x04\n      dup3\n      add\n        /* \"#utility.yul\":3184:3205   */\n      mstore\n        /* \"#utility.yul\":3241:3243   */\n      0x10\n        /* \"#utility.yul\":3221:3239   */\n      0x24\n      dup3\n      add\n        /* \"#utility.yul\":3214:3244   */\n      mstore\n      shl(0x81, 0x24b73b30b634b2103837b9b4ba34b7b7)\n        /* \"#utility.yul\":3260:3278   */\n      0x44\n      dup3\n      add\n        /* \"#utility.yul\":3253:3299   */\n      mstore\n        /* \"#utility.yul\":3316:3334   */\n      0x64\n      add\n        /* \"TicTacToe.sol\":1020:1078  require(position >= 0 && position < 9, \"Invalid position\") */\n    tag_77:\n      mload(0x40)\n      dup1\n      swap2\n      sub\n      swap1\n      revert\n    tag_76:\n        /* \"TicTacToe.sol\":1129:1140  Player.None */\n      0x02\n        /* \"TicTacToe.sol\":1096:1101  games */\n      0x00\n        /* \"TicTacToe.sol\":1096:1109  games[gameId] */\n      dup4\n      dup2\n      mstore\n      0x20\n      dup2\n      swap1\n      mstore\n      0x40\n      swap1\n      keccak256\n        /* \"TicTacToe.sol\":1096:1125  games[gameId].board[position] */\n      dup1\n      sload\n        /* \"TicTacToe.sol\":1116:1124  position */\n      dup4\n      swap1\n        /* \"TicTacToe.sol\":1096:1125  games[gameId].board[position] */\n      dup2\n      lt\n      tag_82\n      jumpi\n      tag_82\n      tag_67\n      jump\t// in\n    tag_82:\n      swap1\n      0x00\n      mstore\n      keccak256(0x00, 0x20)\n      swap1\n      0x20\n      swap2\n      dup3\n      dup3\n      div\n      add\n      swap2\n      swap1\n      mod\n      swap1\n      sload\n      swap1\n      0x0100\n      exp\n      swap1\n      div\n      0xff\n      and\n        /* \"TicTacToe.sol\":1096:1140  games[gameId].board[position] == Player.None */\n      0x02\n      dup2\n      gt\n      iszero\n      tag_85\n      jumpi\n      tag_85\n      tag_44\n      jump\t// in\n    tag_85:\n      eq\n        /* \"TicTacToe.sol\":1088:1170  require(games[gameId].board[position] == Player.None, \"Position already occupied\") */\n      tag_86\n      jumpi\n      mload(0x40)\n      shl(0xe5, 0x461bcd)\n      dup2\n      mstore\n        /* \"#utility.yul\":3547:3549   */\n      0x20\n        /* \"TicTacToe.sol\":1088:1170  require(games[gameId].board[position] == Player.None, \"Position already occupied\") */\n      0x04\n      dup3\n      add\n        /* \"#utility.yul\":3529:3550   */\n      mstore\n        /* \"#utility.yul\":3586:3588   */\n      0x19\n        /* \"#utility.yul\":3566:3584   */\n      0x24\n      dup3\n      add\n        /* \"#utility.yul\":3559:3589   */\n      mstore\n        /* \"#utility.yul\":3625:3652   */\n      0x506f736974696f6e20616c7265616479206f6363757069656400000000000000\n        /* \"#utility.yul\":3605:3623   */\n      0x44\n      dup3\n      add\n        /* \"#utility.yul\":3598:3653   */\n      mstore\n        /* \"#utility.yul\":3670:3688   */\n      0x64\n      add\n        /* \"TicTacToe.sol\":1088:1170  require(games[gameId].board[position] == Player.None, \"Position already occupied\") */\n      tag_77\n        /* \"#utility.yul\":3345:3694   */\n      jump\n        /* \"TicTacToe.sol\":1088:1170  require(games[gameId].board[position] == Player.None, \"Position already occupied\") */\n    tag_86:\n        /* \"TicTacToe.sol\":1218:1223  games */\n      0x00\n        /* \"TicTacToe.sol\":1218:1231  games[gameId] */\n      dup3\n      dup2\n      mstore\n      0x20\n      dup2\n      swap1\n      mstore\n      0x40\n      swap1\n      keccak256\n        /* \"TicTacToe.sol\":1218:1245  games[gameId].currentPlayer */\n      0x01\n      add\n      sload\n        /* \"TicTacToe.sol\":1202:1246  playerToAddress(games[gameId].currentPlayer) */\n      tag_89\n      swap1\n        /* \"TicTacToe.sol\":1218:1245  games[gameId].currentPlayer */\n      0xff\n      and\n        /* \"TicTacToe.sol\":1202:1217  playerToAddress */\n      tag_90\n        /* \"TicTacToe.sol\":1202:1246  playerToAddress(games[gameId].currentPlayer) */\n      jump\t// in\n    tag_89:\n      sub(shl(0xa0, 0x01), 0x01)\n        /* \"TicTacToe.sol\":1188:1246  msg.sender == playerToAddress(games[gameId].currentPlayer) */\n      and\n        /* \"TicTacToe.sol\":1188:1198  msg.sender */\n      caller\n      sub(shl(0xa0, 0x01), 0x01)\n        /* \"TicTacToe.sol\":1188:1246  msg.sender == playerToAddress(games[gameId].currentPlayer) */\n      and\n      eq\n        /* \"TicTacToe.sol\":1180:1264  require(msg.sender == playerToAddress(games[gameId].currentPlayer), \"Not your turn\") */\n      tag_91\n      jumpi\n      mload(0x40)\n      shl(0xe5, 0x461bcd)\n      dup2\n      mstore\n        /* \"#utility.yul\":3901:3903   */\n      0x20\n        /* \"TicTacToe.sol\":1180:1264  require(msg.sender == playerToAddress(games[gameId].currentPlayer), \"Not your turn\") */\n      0x04\n      dup3\n      add\n        /* \"#utility.yul\":3883:3904   */\n      mstore\n        /* \"#utility.yul\":3940:3942   */\n      0x0d\n        /* \"#utility.yul\":3920:3938   */\n      0x24\n      dup3\n      add\n        /* \"#utility.yul\":3913:3943   */\n      mstore\n      shl(0x99, 0x2737ba103cb7bab9103a3ab937)\n        /* \"#utility.yul\":3959:3977   */\n      0x44\n      dup3\n      add\n        /* \"#utility.yul\":3952:3995   */\n      mstore\n        /* \"#utility.yul\":4012:4030   */\n      0x64\n      add\n        /* \"TicTacToe.sol\":1180:1264  require(msg.sender == playerToAddress(games[gameId].currentPlayer), \"Not your turn\") */\n      tag_77\n        /* \"#utility.yul\":3699:4036   */\n      jump\n        /* \"TicTacToe.sol\":1180:1264  require(msg.sender == playerToAddress(games[gameId].currentPlayer), \"Not your turn\") */\n    tag_91:\n        /* \"TicTacToe.sol\":1308:1313  games */\n      0x00\n        /* \"TicTacToe.sol\":1308:1321  games[gameId] */\n      dup3\n      dup2\n      mstore\n      0x20\n      dup2\n      swap1\n      mstore\n      0x40\n      swap1\n      keccak256\n        /* \"TicTacToe.sol\":1308:1335  games[gameId].currentPlayer */\n      0x01\n      dup2\n      add\n      sload\n        /* \"TicTacToe.sol\":1276:1305  games[gameId].board[position] */\n      dup2\n      sload\n        /* \"TicTacToe.sol\":1308:1335  games[gameId].currentPlayer */\n      0xff\n      swap1\n      swap2\n      and\n      swap2\n        /* \"TicTacToe.sol\":1308:1321  games[gameId] */\n      swap1\n        /* \"TicTacToe.sol\":1296:1304  position */\n      dup4\n      swap1\n        /* \"TicTacToe.sol\":1276:1305  games[gameId].board[position] */\n      dup2\n      lt\n      tag_95\n      jumpi\n      tag_95\n      tag_67\n      jump\t// in\n    tag_95:\n      swap1\n      0x00\n      mstore\n      keccak256(0x00, 0x20)\n      swap1\n      0x20\n      swap2\n      dup3\n      dup3\n      div\n      add\n      swap2\n      swap1\n      mod\n        /* \"TicTacToe.sol\":1276:1335  games[gameId].board[position] = games[gameId].currentPlayer */\n      0x0100\n      exp\n      dup2\n      sload\n      dup2\n      0xff\n      mul\n      not\n      and\n      swap1\n      dup4\n      0x02\n      dup2\n      gt\n      iszero\n      tag_98\n      jumpi\n      tag_98\n      tag_44\n      jump\t// in\n    tag_98:\n      mul\n      or\n      swap1\n      sstore\n      pop\n        /* \"TicTacToe.sol\":1385:1401  checkWin(gameId) */\n      tag_99\n        /* \"TicTacToe.sol\":1394:1400  gameId */\n      dup3\n        /* \"TicTacToe.sol\":1385:1393  checkWin */\n      tag_100\n        /* \"TicTacToe.sol\":1385:1401  checkWin(gameId) */\n      jump\t// in\n    tag_99:\n        /* \"TicTacToe.sol\":1381:1857  if (checkWin(gameId)) {... */\n      iszero\n      tag_101\n      jumpi\n        /* \"TicTacToe.sol\":1440:1445  games */\n      0x00\n        /* \"TicTacToe.sol\":1440:1453  games[gameId] */\n      dup3\n      dup2\n      mstore\n      0x20\n      dup2\n      swap1\n      mstore\n      0x40\n      swap1\n      keccak256\n        /* \"TicTacToe.sol\":1440:1467  games[gameId].currentPlayer */\n      0x01\n      add\n      dup1\n      sload\n      0xff\n      dup2\n      and\n      swap2\n      swap1\n      not(0xff00)\n        /* \"TicTacToe.sol\":1417:1467  games[gameId].winner = games[gameId].currentPlayer */\n      and\n        /* \"TicTacToe.sol\":1440:1467  games[gameId].currentPlayer */\n      0x0100\n      dup4\n        /* \"TicTacToe.sol\":1417:1467  games[gameId].winner = games[gameId].currentPlayer */\n      0x02\n      dup2\n      gt\n      iszero\n      tag_103\n      jumpi\n      tag_103\n      tag_44\n      jump\t// in\n    tag_103:\n      mul\n      or\n      swap1\n      sstore\n      pop\n        /* \"TicTacToe.sol\":1503:1508  games */\n      0x00\n        /* \"TicTacToe.sol\":1503:1516  games[gameId] */\n      dup3\n      dup2\n      mstore\n      0x20\n      dup2\n      swap1\n      mstore\n      0x40\n      swap1\n      dup2\n      swap1\n      keccak256\n        /* \"TicTacToe.sol\":1503:1530  games[gameId].currentPlayer */\n      0x01\n      add\n      sload\n        /* \"TicTacToe.sol\":1486:1531  GameOver(gameId, games[gameId].currentPlayer) */\n      swap1\n      mload\n      0x132b564c6f96092065580fd28989d181dfbbfe4aa2fb7fb1eda8af68ba3073e0\n      swap2\n      tag_104\n      swap2\n        /* \"TicTacToe.sol\":1495:1501  gameId */\n      dup6\n      swap2\n        /* \"TicTacToe.sol\":1503:1530  games[gameId].currentPlayer */\n      0xff\n      and\n      swap1\n        /* \"TicTacToe.sol\":1486:1531  GameOver(gameId, games[gameId].currentPlayer) */\n      tag_105\n      jump\t// in\n    tag_104:\n      mload(0x40)\n      dup1\n      swap2\n      sub\n      swap1\n      log1\n        /* \"TicTacToe.sol\":1381:1857  if (checkWin(gameId)) {... */\n      jump(tag_113)\n    tag_101:\n        /* \"TicTacToe.sol\":1552:1571  isBoardFull(gameId) */\n      tag_107\n        /* \"TicTacToe.sol\":1564:1570  gameId */\n      dup3\n        /* \"TicTacToe.sol\":1552:1563  isBoardFull */\n      tag_108\n        /* \"TicTacToe.sol\":1552:1571  isBoardFull(gameId) */\n      jump\t// in\n    tag_107:\n        /* \"TicTacToe.sol\":1548:1857  if (isBoardFull(gameId)) {... */\n      iszero\n      tag_109\n      jumpi\n        /* \"TicTacToe.sol\":1587:1592  games */\n      0x00\n        /* \"TicTacToe.sol\":1587:1600  games[gameId] */\n      dup3\n      dup2\n      mstore\n      0x20\n      dup2\n      swap1\n      mstore\n      0x40\n      swap1\n      dup2\n      swap1\n      keccak256\n        /* \"TicTacToe.sol\":1587:1607  games[gameId].winner */\n      0x01\n      add\n        /* \"TicTacToe.sol\":1587:1621  games[gameId].winner = Player.None */\n      dup1\n      sload\n      not(0xff00)\n      and\n      0x0200\n      or\n      swap1\n      sstore\n        /* \"TicTacToe.sol\":1648:1677  GameOver(gameId, Player.None) */\n      mload\n      0x132b564c6f96092065580fd28989d181dfbbfe4aa2fb7fb1eda8af68ba3073e0\n      swap1\n      tag_104\n      swap1\n        /* \"TicTacToe.sol\":1587:1600  games[gameId] */\n      dup5\n      swap1\n        /* \"TicTacToe.sol\":1610:1621  Player.None */\n      0x02\n      swap1\n        /* \"TicTacToe.sol\":1648:1677  GameOver(gameId, Player.None) */\n      tag_105\n      jump\t// in\n        /* \"TicTacToe.sol\":1548:1857  if (isBoardFull(gameId)) {... */\n    tag_109:\n        /* \"TicTacToe.sol\":1816:1824  Player.X */\n      0x00\n        /* \"TicTacToe.sol\":1785:1798  games[gameId] */\n      dup3\n      dup2\n      mstore\n      0x20\n      dup2\n      swap1\n      mstore\n      0x40\n      dup2\n      keccak256\n        /* \"TicTacToe.sol\":1785:1812  games[gameId].currentPlayer */\n      0x01\n      add\n      sload\n      0xff\n      and\n        /* \"TicTacToe.sol\":1785:1824  games[gameId].currentPlayer == Player.X */\n      0x02\n      dup2\n      gt\n      iszero\n      tag_117\n      jumpi\n      tag_117\n      tag_44\n      jump\t// in\n    tag_117:\n      eq\n        /* \"TicTacToe.sol\":1785:1846  games[gameId].currentPlayer == Player.X ? Player.O : Player.X */\n      tag_118\n      jumpi\n        /* \"TicTacToe.sol\":1838:1846  Player.X */\n      0x00\n        /* \"TicTacToe.sol\":1785:1846  games[gameId].currentPlayer == Player.X ? Player.O : Player.X */\n      jump(tag_119)\n    tag_118:\n        /* \"TicTacToe.sol\":1827:1835  Player.O */\n      0x01\n        /* \"TicTacToe.sol\":1785:1846  games[gameId].currentPlayer == Player.X ? Player.O : Player.X */\n    tag_119:\n        /* \"TicTacToe.sol\":1738:1743  games */\n      0x00\n        /* \"TicTacToe.sol\":1738:1751  games[gameId] */\n      dup4\n      dup2\n      mstore\n      0x20\n      dup2\n      swap1\n      mstore\n      0x40\n      swap1\n      keccak256\n        /* \"TicTacToe.sol\":1738:1765  games[gameId].currentPlayer */\n      0x01\n      swap1\n      dup2\n      add\n        /* \"TicTacToe.sol\":1738:1846  games[gameId].currentPlayer = ... */\n      dup1\n      sload\n        /* \"TicTacToe.sol\":1738:1765  games[gameId].currentPlayer */\n      swap1\n      swap2\n      not(0xff)\n        /* \"TicTacToe.sol\":1738:1846  games[gameId].currentPlayer = ... */\n      swap1\n      swap2\n      and\n      swap1\n      dup4\n      0x02\n      dup2\n      gt\n      iszero\n      tag_121\n      jumpi\n      tag_121\n      tag_44\n      jump\t// in\n    tag_121:\n      mul\n      or\n      swap1\n      sstore\n      pop\n        /* \"TicTacToe.sol\":1548:1857  if (isBoardFull(gameId)) {... */\n    tag_113:\n        /* \"TicTacToe.sol\":1899:1904  games */\n      0x00\n        /* \"TicTacToe.sol\":1899:1912  games[gameId] */\n      dup3\n      dup2\n      mstore\n      0x20\n      dup2\n      swap1\n      mstore\n      0x40\n      swap1\n      dup2\n      swap1\n      keccak256\n        /* \"TicTacToe.sol\":1899:1926  games[gameId].currentPlayer */\n      0x01\n      add\n      sload\n        /* \"TicTacToe.sol\":1872:1927  MoveMade(gameId, position, games[gameId].currentPlayer) */\n      swap1\n      mload\n      0x270e7680923c4530531e619b24c3702d2271ca1dfb2fd41a11b4a30edf23254a\n      swap2\n      tag_122\n      swap2\n        /* \"TicTacToe.sol\":1881:1887  gameId */\n      dup6\n      swap2\n        /* \"TicTacToe.sol\":1889:1897  position */\n      dup6\n      swap2\n        /* \"TicTacToe.sol\":1899:1926  games[gameId].currentPlayer */\n      0xff\n      swap1\n      swap2\n      and\n      swap1\n        /* \"TicTacToe.sol\":1872:1927  MoveMade(gameId, position, games[gameId].currentPlayer) */\n      tag_123\n      jump\t// in\n    tag_122:\n      mload(0x40)\n      dup1\n      swap2\n      sub\n      swap1\n      log1\n        /* \"TicTacToe.sol\":951:1934  function makeMove(uint256 gameId, uint256 position) public {... */\n      pop\n      pop\n      jump\t// out\n        /* \"TicTacToe.sol\":3517:4054  function playerToAddress(Player player) internal pure returns (address) {... */\n    tag_90:\n        /* \"TicTacToe.sol\":3580:3587  address */\n      0x00\n      dup1\n        /* \"TicTacToe.sol\":3704:3710  player */\n      dup3\n        /* \"TicTacToe.sol\":3704:3722  player == Player.X */\n      0x02\n      dup2\n      gt\n      iszero\n      tag_128\n      jumpi\n      tag_128\n      tag_44\n      jump\t// in\n    tag_128:\n      sub\n        /* \"TicTacToe.sol\":3700:4048  if (player == Player.X) {... */\n      tag_129\n      jumpi\n      pop\n        /* \"TicTacToe.sol\":3753:3795  0x1234567890123456789012345678901234567890 */\n      0x1234567890123456789012345678901234567890\n      swap2\n        /* \"TicTacToe.sol\":3517:4054  function playerToAddress(Player player) internal pure returns (address) {... */\n      swap1\n      pop\n      jump\t// out\n        /* \"TicTacToe.sol\":3700:4048  if (player == Player.X) {... */\n    tag_129:\n        /* \"TicTacToe.sol\":3867:3875  Player.O */\n      0x01\n        /* \"TicTacToe.sol\":3857:3863  player */\n      dup3\n        /* \"TicTacToe.sol\":3857:3875  player == Player.O */\n      0x02\n      dup2\n      gt\n      iszero\n      tag_134\n      jumpi\n      tag_134\n      tag_44\n      jump\t// in\n    tag_134:\n      sub\n        /* \"TicTacToe.sol\":3853:4048  if (player == Player.O) {... */\n      tag_135\n      jumpi\n      pop\n        /* \"TicTacToe.sol\":3906:3948  0x9876543210987654321098765432109876543210 */\n      0x9876543210987654321098765432109876543210\n      swap2\n        /* \"TicTacToe.sol\":3517:4054  function playerToAddress(Player player) internal pure returns (address) {... */\n      swap1\n      pop\n      jump\t// out\n        /* \"TicTacToe.sol\":3853:4048  if (player == Player.O) {... */\n    tag_135:\n      pop\n        /* \"TicTacToe.sol\":4035:4036  0 */\n      0x00\n      swap2\n        /* \"TicTacToe.sol\":3517:4054  function playerToAddress(Player player) internal pure returns (address) {... */\n      swap1\n      pop\n      jump\t// out\n        /* \"TicTacToe.sol\":1940:3258  function checkWin(uint256 gameId) internal view returns (bool) {... */\n    tag_100:\n        /* \"TicTacToe.sol\":1997:2001  bool */\n      0x00\n      dup1\n        /* \"TicTacToe.sol\":2035:2372  for (uint256 i = 0; i < 3; i++) {... */\n    tag_138:\n        /* \"TicTacToe.sol\":2059:2060  3 */\n      0x03\n        /* \"TicTacToe.sol\":2055:2056  i */\n      dup2\n        /* \"TicTacToe.sol\":2055:2060  i < 3 */\n      lt\n        /* \"TicTacToe.sol\":2035:2372  for (uint256 i = 0; i < 3; i++) {... */\n      iszero\n      tag_139\n      jumpi\n        /* \"TicTacToe.sol\":2132:2143  Player.None */\n      0x02\n        /* \"TicTacToe.sol\":2102:2107  games */\n      0x00\n        /* \"TicTacToe.sol\":2102:2115  games[gameId] */\n      dup5\n      dup2\n      mstore\n      0x20\n      dup2\n      swap1\n      mstore\n      0x40\n      swap1\n      keccak256\n        /* \"TicTacToe.sol\":2122:2127  i * 3 */\n      tag_143\n        /* \"TicTacToe.sol\":2122:2123  i */\n      dup4\n        /* \"TicTacToe.sol\":2126:2127  3 */\n      0x03\n        /* \"TicTacToe.sol\":2122:2127  i * 3 */\n      tag_144\n      jump\t// in\n    tag_143:\n        /* \"TicTacToe.sol\":2102:2128  games[gameId].board[i * 3] */\n      dup2\n      sload\n      dup2\n      lt\n      tag_146\n      jumpi\n      tag_146\n      tag_67\n      jump\t// in\n    tag_146:\n      swap1\n      0x00\n      mstore\n      keccak256(0x00, 0x20)\n      swap1\n      0x20\n      swap2\n      dup3\n      dup3\n      div\n      add\n      swap2\n      swap1\n      mod\n      swap1\n      sload\n      swap1\n      0x0100\n      exp\n      swap1\n      div\n      0xff\n      and\n        /* \"TicTacToe.sol\":2102:2143  games[gameId].board[i * 3] != Player.None */\n      0x02\n      dup2\n      gt\n      iszero\n      tag_149\n      jumpi\n      tag_149\n      tag_44\n      jump\t// in\n    tag_149:\n      eq\n      iszero\n        /* \"TicTacToe.sol\":2102:2223  games[gameId].board[i * 3] != Player.None &&... */\n      dup1\n      iszero\n      tag_150\n      jumpi\n      pop\n        /* \"TicTacToe.sol\":2193:2198  games */\n      0x00\n        /* \"TicTacToe.sol\":2193:2206  games[gameId] */\n      dup4\n      dup2\n      mstore\n      0x20\n      dup2\n      swap1\n      mstore\n      0x40\n      swap1\n      keccak256\n        /* \"TicTacToe.sol\":2213:2218  i * 3 */\n      tag_151\n        /* \"TicTacToe.sol\":2213:2214  i */\n      dup3\n        /* \"TicTacToe.sol\":2217:2218  3 */\n      0x03\n        /* \"TicTacToe.sol\":2213:2218  i * 3 */\n      tag_144\n      jump\t// in\n    tag_151:\n        /* \"TicTacToe.sol\":2213:2222  i * 3 + 1 */\n      tag_152\n      swap1\n        /* \"TicTacToe.sol\":2221:2222  1 */\n      0x01\n        /* \"TicTacToe.sol\":2213:2222  i * 3 + 1 */\n      tag_153\n      jump\t// in\n    tag_152:\n        /* \"TicTacToe.sol\":2193:2223  games[gameId].board[i * 3 + 1] */\n      dup2\n      sload\n      dup2\n      lt\n      tag_155\n      jumpi\n      tag_155\n      tag_67\n      jump\t// in\n    tag_155:\n      swap1\n      0x00\n      mstore\n      keccak256(0x00, 0x20)\n      swap1\n      0x20\n      swap2\n      dup3\n      dup3\n      div\n      add\n      swap2\n      swap1\n      mod\n      swap1\n      sload\n      swap1\n      0x0100\n      exp\n      swap1\n      div\n      0xff\n      and\n        /* \"TicTacToe.sol\":2163:2223  games[gameId].board[i * 3] == games[gameId].board[i * 3 + 1] */\n      0x02\n      dup2\n      gt\n      iszero\n      tag_158\n      jumpi\n      tag_158\n      tag_44\n      jump\t// in\n    tag_158:\n        /* \"TicTacToe.sol\":2163:2168  games */\n      0x00\n        /* \"TicTacToe.sol\":2163:2176  games[gameId] */\n      dup5\n      dup2\n      mstore\n      0x20\n      dup2\n      swap1\n      mstore\n      0x40\n      swap1\n      keccak256\n        /* \"TicTacToe.sol\":2183:2188  i * 3 */\n      tag_159\n        /* \"TicTacToe.sol\":2183:2184  i */\n      dup4\n        /* \"TicTacToe.sol\":2187:2188  3 */\n      0x03\n        /* \"TicTacToe.sol\":2183:2188  i * 3 */\n      tag_144\n      jump\t// in\n    tag_159:\n        /* \"TicTacToe.sol\":2163:2189  games[gameId].board[i * 3] */\n      dup2\n      sload\n      dup2\n      lt\n      tag_161\n      jumpi\n      tag_161\n      tag_67\n      jump\t// in\n    tag_161:\n      swap1\n      0x00\n      mstore\n      keccak256(0x00, 0x20)\n      swap1\n      0x20\n      swap2\n      dup3\n      dup3\n      div\n      add\n      swap2\n      swap1\n      mod\n      swap1\n      sload\n      swap1\n      0x0100\n      exp\n      swap1\n      div\n      0xff\n      and\n        /* \"TicTacToe.sol\":2163:2223  games[gameId].board[i * 3] == games[gameId].board[i * 3 + 1] */\n      0x02\n      dup2\n      gt\n      iszero\n      tag_164\n      jumpi\n      tag_164\n      tag_44\n      jump\t// in\n    tag_164:\n      eq\n        /* \"TicTacToe.sol\":2102:2223  games[gameId].board[i * 3] != Player.None &&... */\n    tag_150:\n        /* \"TicTacToe.sol\":2102:2303  games[gameId].board[i * 3] != Player.None &&... */\n      dup1\n      iszero\n      tag_165\n      jumpi\n      pop\n        /* \"TicTacToe.sol\":2273:2278  games */\n      0x00\n        /* \"TicTacToe.sol\":2273:2286  games[gameId] */\n      dup4\n      dup2\n      mstore\n      0x20\n      dup2\n      swap1\n      mstore\n      0x40\n      swap1\n      keccak256\n        /* \"TicTacToe.sol\":2293:2298  i * 3 */\n      tag_166\n        /* \"TicTacToe.sol\":2293:2294  i */\n      dup3\n        /* \"TicTacToe.sol\":2297:2298  3 */\n      0x03\n        /* \"TicTacToe.sol\":2293:2298  i * 3 */\n      tag_144\n      jump\t// in\n    tag_166:\n        /* \"TicTacToe.sol\":2293:2302  i * 3 + 2 */\n      tag_167\n      swap1\n        /* \"TicTacToe.sol\":2301:2302  2 */\n      0x02\n        /* \"TicTacToe.sol\":2293:2302  i * 3 + 2 */\n      tag_153\n      jump\t// in\n    tag_167:\n        /* \"TicTacToe.sol\":2273:2303  games[gameId].board[i * 3 + 2] */\n      dup2\n      sload\n      dup2\n      lt\n      tag_169\n      jumpi\n      tag_169\n      tag_67\n      jump\t// in\n    tag_169:\n      swap1\n      0x00\n      mstore\n      keccak256(0x00, 0x20)\n      swap1\n      0x20\n      swap2\n      dup3\n      dup3\n      div\n      add\n      swap2\n      swap1\n      mod\n      swap1\n      sload\n      swap1\n      0x0100\n      exp\n      swap1\n      div\n      0xff\n      and\n        /* \"TicTacToe.sol\":2243:2303  games[gameId].board[i * 3] == games[gameId].board[i * 3 + 2] */\n      0x02\n      dup2\n      gt\n      iszero\n      tag_172\n      jumpi\n      tag_172\n      tag_44\n      jump\t// in\n    tag_172:\n        /* \"TicTacToe.sol\":2243:2248  games */\n      0x00\n        /* \"TicTacToe.sol\":2243:2256  games[gameId] */\n      dup5\n      dup2\n      mstore\n      0x20\n      dup2\n      swap1\n      mstore\n      0x40\n      swap1\n      keccak256\n        /* \"TicTacToe.sol\":2263:2268  i * 3 */\n      tag_173\n        /* \"TicTacToe.sol\":2263:2264  i */\n      dup4\n        /* \"TicTacToe.sol\":2267:2268  3 */\n      0x03\n        /* \"TicTacToe.sol\":2263:2268  i * 3 */\n      tag_144\n      jump\t// in\n    tag_173:\n        /* \"TicTacToe.sol\":2243:2269  games[gameId].board[i * 3] */\n      dup2\n      sload\n      dup2\n      lt\n      tag_175\n      jumpi\n      tag_175\n      tag_67\n      jump\t// in\n    tag_175:\n      swap1\n      0x00\n      mstore\n      keccak256(0x00, 0x20)\n      swap1\n      0x20\n      swap2\n      dup3\n      dup3\n      div\n      add\n      swap2\n      swap1\n      mod\n      swap1\n      sload\n      swap1\n      0x0100\n      exp\n      swap1\n      div\n      0xff\n      and\n        /* \"TicTacToe.sol\":2243:2303  games[gameId].board[i * 3] == games[gameId].board[i * 3 + 2] */\n      0x02\n      dup2\n      gt\n      iszero\n      tag_178\n      jumpi\n      tag_178\n      tag_44\n      jump\t// in\n    tag_178:\n      eq\n        /* \"TicTacToe.sol\":2102:2303  games[gameId].board[i * 3] != Player.None &&... */\n    tag_165:\n        /* \"TicTacToe.sol\":2081:2362  if (... */\n      iszero\n      tag_179\n      jumpi\n      pop\n        /* \"TicTacToe.sol\":2343:2347  true */\n      0x01\n      swap3\n        /* \"TicTacToe.sol\":1940:3258  function checkWin(uint256 gameId) internal view returns (bool) {... */\n      swap2\n      pop\n      pop\n      jump\t// out\n        /* \"TicTacToe.sol\":2081:2362  if (... */\n    tag_179:\n        /* \"TicTacToe.sol\":2062:2065  i++ */\n      dup1\n      tag_180\n      dup2\n      tag_72\n      jump\t// in\n    tag_180:\n      swap2\n      pop\n      pop\n        /* \"TicTacToe.sol\":2035:2372  for (uint256 i = 0; i < 3; i++) {... */\n      jump(tag_138)\n    tag_139:\n      pop\n        /* \"TicTacToe.sol\":2412:2421  uint256 i */\n      0x00\n        /* \"TicTacToe.sol\":2407:2724  for (uint256 i = 0; i < 3; i++) {... */\n    tag_181:\n        /* \"TicTacToe.sol\":2431:2432  3 */\n      0x03\n        /* \"TicTacToe.sol\":2427:2428  i */\n      dup2\n        /* \"TicTacToe.sol\":2427:2432  i < 3 */\n      lt\n        /* \"TicTacToe.sol\":2407:2724  for (uint256 i = 0; i < 3; i++) {... */\n      iszero\n      tag_182\n      jumpi\n        /* \"TicTacToe.sol\":2500:2511  Player.None */\n      0x02\n        /* \"TicTacToe.sol\":2474:2479  games */\n      0x00\n        /* \"TicTacToe.sol\":2474:2487  games[gameId] */\n      dup5\n      dup2\n      mstore\n      0x20\n      dup2\n      swap1\n      mstore\n      0x40\n      swap1\n      keccak256\n        /* \"TicTacToe.sol\":2474:2496  games[gameId].board[i] */\n      dup1\n      sload\n        /* \"TicTacToe.sol\":2494:2495  i */\n      dup4\n      swap1\n        /* \"TicTacToe.sol\":2474:2496  games[gameId].board[i] */\n      dup2\n      lt\n      tag_187\n      jumpi\n      tag_187\n      tag_67\n      jump\t// in\n    tag_187:\n      swap1\n      0x00\n      mstore\n      keccak256(0x00, 0x20)\n      swap1\n      0x20\n      swap2\n      dup3\n      dup3\n      div\n      add\n      swap2\n      swap1\n      mod\n      swap1\n      sload\n      swap1\n      0x0100\n      exp\n      swap1\n      div\n      0xff\n      and\n        /* \"TicTacToe.sol\":2474:2511  games[gameId].board[i] != Player.None */\n      0x02\n      dup2\n      gt\n      iszero\n      tag_190\n      jumpi\n      tag_190\n      tag_44\n      jump\t// in\n    tag_190:\n      eq\n      iszero\n        /* \"TicTacToe.sol\":2474:2583  games[gameId].board[i] != Player.None &&... */\n      dup1\n      iszero\n      tag_191\n      jumpi\n      pop\n        /* \"TicTacToe.sol\":2557:2562  games */\n      0x00\n        /* \"TicTacToe.sol\":2557:2570  games[gameId] */\n      dup4\n      dup2\n      mstore\n      0x20\n      dup2\n      swap1\n      mstore\n      0x40\n      swap1\n      keccak256\n        /* \"TicTacToe.sol\":2577:2582  i + 3 */\n      tag_192\n        /* \"TicTacToe.sol\":2577:2578  i */\n      dup3\n        /* \"TicTacToe.sol\":2581:2582  3 */\n      0x03\n        /* \"TicTacToe.sol\":2577:2582  i + 3 */\n      tag_153\n      jump\t// in\n    tag_192:\n        /* \"TicTacToe.sol\":2557:2583  games[gameId].board[i + 3] */\n      dup2\n      sload\n      dup2\n      lt\n      tag_194\n      jumpi\n      tag_194\n      tag_67\n      jump\t// in\n    tag_194:\n      swap1\n      0x00\n      mstore\n      keccak256(0x00, 0x20)\n      swap1\n      0x20\n      swap2\n      dup3\n      dup3\n      div\n      add\n      swap2\n      swap1\n      mod\n      swap1\n      sload\n      swap1\n      0x0100\n      exp\n      swap1\n      div\n      0xff\n      and\n        /* \"TicTacToe.sol\":2531:2583  games[gameId].board[i] == games[gameId].board[i + 3] */\n      0x02\n      dup2\n      gt\n      iszero\n      tag_197\n      jumpi\n      tag_197\n      tag_44\n      jump\t// in\n    tag_197:\n        /* \"TicTacToe.sol\":2531:2536  games */\n      0x00\n        /* \"TicTacToe.sol\":2531:2544  games[gameId] */\n      dup5\n      dup2\n      mstore\n      0x20\n      dup2\n      swap1\n      mstore\n      0x40\n      swap1\n      keccak256\n        /* \"TicTacToe.sol\":2531:2553  games[gameId].board[i] */\n      dup1\n      sload\n        /* \"TicTacToe.sol\":2551:2552  i */\n      dup4\n      swap1\n        /* \"TicTacToe.sol\":2531:2553  games[gameId].board[i] */\n      dup2\n      lt\n      tag_199\n      jumpi\n      tag_199\n      tag_67\n      jump\t// in\n    tag_199:\n      swap1\n      0x00\n      mstore\n      keccak256(0x00, 0x20)\n      swap1\n      0x20\n      swap2\n      dup3\n      dup3\n      div\n      add\n      swap2\n      swap1\n      mod\n      swap1\n      sload\n      swap1\n      0x0100\n      exp\n      swap1\n      div\n      0xff\n      and\n        /* \"TicTacToe.sol\":2531:2583  games[gameId].board[i] == games[gameId].board[i + 3] */\n      0x02\n      dup2\n      gt\n      iszero\n      tag_202\n      jumpi\n      tag_202\n      tag_44\n      jump\t// in\n    tag_202:\n      eq\n        /* \"TicTacToe.sol\":2474:2583  games[gameId].board[i] != Player.None &&... */\n    tag_191:\n        /* \"TicTacToe.sol\":2474:2655  games[gameId].board[i] != Player.None &&... */\n      dup1\n      iszero\n      tag_203\n      jumpi\n      pop\n        /* \"TicTacToe.sol\":2629:2634  games */\n      0x00\n        /* \"TicTacToe.sol\":2629:2642  games[gameId] */\n      dup4\n      dup2\n      mstore\n      0x20\n      dup2\n      swap1\n      mstore\n      0x40\n      swap1\n      keccak256\n        /* \"TicTacToe.sol\":2649:2654  i + 6 */\n      tag_204\n        /* \"TicTacToe.sol\":2649:2650  i */\n      dup3\n        /* \"TicTacToe.sol\":2653:2654  6 */\n      0x06\n        /* \"TicTacToe.sol\":2649:2654  i + 6 */\n      tag_153\n      jump\t// in\n    tag_204:\n        /* \"TicTacToe.sol\":2629:2655  games[gameId].board[i + 6] */\n      dup2\n      sload\n      dup2\n      lt\n      tag_206\n      jumpi\n      tag_206\n      tag_67\n      jump\t// in\n    tag_206:\n      swap1\n      0x00\n      mstore\n      keccak256(0x00, 0x20)\n      swap1\n      0x20\n      swap2\n      dup3\n      dup3\n      div\n      add\n      swap2\n      swap1\n      mod\n      swap1\n      sload\n      swap1\n      0x0100\n      exp\n      swap1\n      div\n      0xff\n      and\n        /* \"TicTacToe.sol\":2603:2655  games[gameId].board[i] == games[gameId].board[i + 6] */\n      0x02\n      dup2\n      gt\n      iszero\n      tag_209\n      jumpi\n      tag_209\n      tag_44\n      jump\t// in\n    tag_209:\n        /* \"TicTacToe.sol\":2603:2608  games */\n      0x00\n        /* \"TicTacToe.sol\":2603:2616  games[gameId] */\n      dup5\n      dup2\n      mstore\n      0x20\n      dup2\n      swap1\n      mstore\n      0x40\n      swap1\n      keccak256\n        /* \"TicTacToe.sol\":2603:2625  games[gameId].board[i] */\n      dup1\n      sload\n        /* \"TicTacToe.sol\":2623:2624  i */\n      dup4\n      swap1\n        /* \"TicTacToe.sol\":2603:2625  games[gameId].board[i] */\n      dup2\n      lt\n      tag_211\n      jumpi\n      tag_211\n      tag_67\n      jump\t// in\n    tag_211:\n      swap1\n      0x00\n      mstore\n      keccak256(0x00, 0x20)\n      swap1\n      0x20\n      swap2\n      dup3\n      dup3\n      div\n      add\n      swap2\n      swap1\n      mod\n      swap1\n      sload\n      swap1\n      0x0100\n      exp\n      swap1\n      div\n      0xff\n      and\n        /* \"TicTacToe.sol\":2603:2655  games[gameId].board[i] == games[gameId].board[i + 6] */\n      0x02\n      dup2\n      gt\n      iszero\n      tag_214\n      jumpi\n      tag_214\n      tag_44\n      jump\t// in\n    tag_214:\n      eq\n        /* \"TicTacToe.sol\":2474:2655  games[gameId].board[i] != Player.None &&... */\n    tag_203:\n        /* \"TicTacToe.sol\":2453:2714  if (... */\n      iszero\n      tag_215\n      jumpi\n      pop\n        /* \"TicTacToe.sol\":2695:2699  true */\n      0x01\n      swap3\n        /* \"TicTacToe.sol\":1940:3258  function checkWin(uint256 gameId) internal view returns (bool) {... */\n      swap2\n      pop\n      pop\n      jump\t// out\n        /* \"TicTacToe.sol\":2453:2714  if (... */\n    tag_215:\n        /* \"TicTacToe.sol\":2434:2437  i++ */\n      dup1\n      tag_216\n      dup2\n      tag_72\n      jump\t// in\n    tag_216:\n      swap2\n      pop\n      pop\n        /* \"TicTacToe.sol\":2407:2724  for (uint256 i = 0; i < 3; i++) {... */\n      jump(tag_181)\n    tag_182:\n      pop\n        /* \"TicTacToe.sol\":2778:2783  games */\n      0x00\n        /* \"TicTacToe.sol\":2778:2791  games[gameId] */\n      dup3\n      dup2\n      mstore\n      0x20\n      dup2\n      swap1\n      mstore\n      0x40\n      dup2\n      keccak256\n        /* \"TicTacToe.sol\":2778:2800  games[gameId].board[0] */\n      dup1\n      sload\n        /* \"TicTacToe.sol\":2804:2815  Player.None */\n      0x02\n      swap3\n        /* \"TicTacToe.sol\":2778:2783  games */\n      swap1\n        /* \"TicTacToe.sol\":2778:2800  games[gameId].board[0] */\n      tag_220\n      jumpi\n      tag_220\n      tag_67\n      jump\t// in\n    tag_220:\n      swap1\n      0x00\n      mstore\n      keccak256(0x00, 0x20)\n      swap1\n      0x20\n      swap2\n      dup3\n      dup3\n      div\n      add\n      swap2\n      swap1\n      mod\n      swap1\n      sload\n      swap1\n      0x0100\n      exp\n      swap1\n      div\n      0xff\n      and\n        /* \"TicTacToe.sol\":2778:2815  games[gameId].board[0] != Player.None */\n      0x02\n      dup2\n      gt\n      iszero\n      tag_223\n      jumpi\n      tag_223\n      tag_44\n      jump\t// in\n    tag_223:\n      eq\n      iszero\n        /* \"TicTacToe.sol\":2778:2879  games[gameId].board[0] != Player.None &&... */\n      dup1\n      iszero\n      tag_224\n      jumpi\n      pop\n        /* \"TicTacToe.sol\":2857:2862  games */\n      0x00\n        /* \"TicTacToe.sol\":2857:2870  games[gameId] */\n      dup3\n      dup2\n      mstore\n      0x20\n      dup2\n      swap1\n      mstore\n      0x40\n      swap1\n      keccak256\n        /* \"TicTacToe.sol\":2857:2879  games[gameId].board[4] */\n      dup1\n      sload\n        /* \"TicTacToe.sol\":2877:2878  4 */\n      0x04\n      swap1\n        /* \"TicTacToe.sol\":2857:2879  games[gameId].board[4] */\n      dup2\n      lt\n      tag_226\n      jumpi\n      tag_226\n      tag_67\n      jump\t// in\n    tag_226:\n      swap1\n      0x00\n      mstore\n      keccak256(0x00, 0x20)\n      swap1\n      0x20\n      swap2\n      dup3\n      dup3\n      div\n      add\n      swap2\n      swap1\n      mod\n      swap1\n      sload\n      swap1\n      0x0100\n      exp\n      swap1\n      div\n      0xff\n      and\n        /* \"TicTacToe.sol\":2831:2879  games[gameId].board[0] == games[gameId].board[4] */\n      0x02\n      dup2\n      gt\n      iszero\n      tag_229\n      jumpi\n      tag_229\n      tag_44\n      jump\t// in\n    tag_229:\n        /* \"TicTacToe.sol\":2831:2836  games */\n      0x00\n        /* \"TicTacToe.sol\":2831:2844  games[gameId] */\n      dup4\n      dup2\n      mstore\n      0x20\n      dup2\n      swap1\n      mstore\n      0x40\n      dup2\n      keccak256\n        /* \"TicTacToe.sol\":2831:2853  games[gameId].board[0] */\n      dup1\n      sload\n        /* \"TicTacToe.sol\":2831:2844  games[gameId] */\n      swap1\n      swap2\n        /* \"TicTacToe.sol\":2831:2836  games */\n      swap1\n        /* \"TicTacToe.sol\":2831:2853  games[gameId].board[0] */\n      tag_231\n      jumpi\n      tag_231\n      tag_67\n      jump\t// in\n    tag_231:\n      swap1\n      0x00\n      mstore\n      keccak256(0x00, 0x20)\n      swap1\n      0x20\n      swap2\n      dup3\n      dup3\n      div\n      add\n      swap2\n      swap1\n      mod\n      swap1\n      sload\n      swap1\n      0x0100\n      exp\n      swap1\n      div\n      0xff\n      and\n        /* \"TicTacToe.sol\":2831:2879  games[gameId].board[0] == games[gameId].board[4] */\n      0x02\n      dup2\n      gt\n      iszero\n      tag_234\n      jumpi\n      tag_234\n      tag_44\n      jump\t// in\n    tag_234:\n      eq\n        /* \"TicTacToe.sol\":2778:2879  games[gameId].board[0] != Player.None &&... */\n    tag_224:\n        /* \"TicTacToe.sol\":2778:2943  games[gameId].board[0] != Player.None &&... */\n      dup1\n      iszero\n      tag_235\n      jumpi\n      pop\n        /* \"TicTacToe.sol\":2921:2926  games */\n      0x00\n        /* \"TicTacToe.sol\":2921:2934  games[gameId] */\n      dup3\n      dup2\n      mstore\n      0x20\n      dup2\n      swap1\n      mstore\n      0x40\n      swap1\n      keccak256\n        /* \"TicTacToe.sol\":2921:2943  games[gameId].board[8] */\n      dup1\n      sload\n        /* \"TicTacToe.sol\":2941:2942  8 */\n      0x08\n      swap1\n        /* \"TicTacToe.sol\":2921:2943  games[gameId].board[8] */\n      dup2\n      lt\n      tag_237\n      jumpi\n      tag_237\n      tag_67\n      jump\t// in\n    tag_237:\n      swap1\n      0x00\n      mstore\n      keccak256(0x00, 0x20)\n      swap1\n      0x20\n      swap2\n      dup3\n      dup3\n      div\n      add\n      swap2\n      swap1\n      mod\n      swap1\n      sload\n      swap1\n      0x0100\n      exp\n      swap1\n      div\n      0xff\n      and\n        /* \"TicTacToe.sol\":2895:2943  games[gameId].board[0] == games[gameId].board[8] */\n      0x02\n      dup2\n      gt\n      iszero\n      tag_240\n      jumpi\n      tag_240\n      tag_44\n      jump\t// in\n    tag_240:\n        /* \"TicTacToe.sol\":2895:2900  games */\n      0x00\n        /* \"TicTacToe.sol\":2895:2908  games[gameId] */\n      dup4\n      dup2\n      mstore\n      0x20\n      dup2\n      swap1\n      mstore\n      0x40\n      dup2\n      keccak256\n        /* \"TicTacToe.sol\":2895:2917  games[gameId].board[0] */\n      dup1\n      sload\n        /* \"TicTacToe.sol\":2895:2908  games[gameId] */\n      swap1\n      swap2\n        /* \"TicTacToe.sol\":2895:2900  games */\n      swap1\n        /* \"TicTacToe.sol\":2895:2917  games[gameId].board[0] */\n      tag_242\n      jumpi\n      tag_242\n      tag_67\n      jump\t// in\n    tag_242:\n      swap1\n      0x00\n      mstore\n      keccak256(0x00, 0x20)\n      swap1\n      0x20\n      swap2\n      dup3\n      dup3\n      div\n      add\n      swap2\n      swap1\n      mod\n      swap1\n      sload\n      swap1\n      0x0100\n      exp\n      swap1\n      div\n      0xff\n      and\n        /* \"TicTacToe.sol\":2895:2943  games[gameId].board[0] == games[gameId].board[8] */\n      0x02\n      dup2\n      gt\n      iszero\n      tag_245\n      jumpi\n      tag_245\n      tag_44\n      jump\t// in\n    tag_245:\n      eq\n        /* \"TicTacToe.sol\":2778:2943  games[gameId].board[0] != Player.None &&... */\n    tag_235:\n        /* \"TicTacToe.sol\":2761:2990  if (... */\n      iszero\n      tag_246\n      jumpi\n      pop\n        /* \"TicTacToe.sol\":2975:2979  true */\n      0x01\n      swap2\n        /* \"TicTacToe.sol\":1940:3258  function checkWin(uint256 gameId) internal view returns (bool) {... */\n      swap1\n      pop\n      jump\t// out\n        /* \"TicTacToe.sol\":2761:2990  if (... */\n    tag_246:\n        /* \"TicTacToe.sol\":3043:3054  Player.None */\n      0x02\n        /* \"TicTacToe.sol\":3017:3022  games */\n      0x00\n        /* \"TicTacToe.sol\":3017:3030  games[gameId] */\n      dup4\n      dup2\n      mstore\n      0x20\n      dup2\n      swap1\n      mstore\n      0x40\n      swap1\n      keccak256\n        /* \"TicTacToe.sol\":3017:3039  games[gameId].board[2] */\n      dup1\n      sload\n        /* \"TicTacToe.sol\":3037:3038  2 */\n      0x02\n      swap1\n        /* \"TicTacToe.sol\":3017:3039  games[gameId].board[2] */\n      dup2\n      lt\n      tag_250\n      jumpi\n      tag_250\n      tag_67\n      jump\t// in\n    tag_250:\n      swap1\n      0x00\n      mstore\n      keccak256(0x00, 0x20)\n      swap1\n      0x20\n      swap2\n      dup3\n      dup3\n      div\n      add\n      swap2\n      swap1\n      mod\n      swap1\n      sload\n      swap1\n      0x0100\n      exp\n      swap1\n      div\n      0xff\n      and\n        /* \"TicTacToe.sol\":3017:3054  games[gameId].board[2] != Player.None */\n      0x02\n      dup2\n      gt\n      iszero\n      tag_253\n      jumpi\n      tag_253\n      tag_44\n      jump\t// in\n    tag_253:\n      eq\n      iszero\n        /* \"TicTacToe.sol\":3017:3118  games[gameId].board[2] != Player.None &&... */\n      dup1\n      iszero\n      tag_254\n      jumpi\n      pop\n        /* \"TicTacToe.sol\":3096:3101  games */\n      0x00\n        /* \"TicTacToe.sol\":3096:3109  games[gameId] */\n      dup3\n      dup2\n      mstore\n      0x20\n      dup2\n      swap1\n      mstore\n      0x40\n      swap1\n      keccak256\n        /* \"TicTacToe.sol\":3096:3118  games[gameId].board[4] */\n      dup1\n      sload\n        /* \"TicTacToe.sol\":3116:3117  4 */\n      0x04\n      swap1\n        /* \"TicTacToe.sol\":3096:3118  games[gameId].board[4] */\n      dup2\n      lt\n      tag_256\n      jumpi\n      tag_256\n      tag_67\n      jump\t// in\n    tag_256:\n      swap1\n      0x00\n      mstore\n      keccak256(0x00, 0x20)\n      swap1\n      0x20\n      swap2\n      dup3\n      dup3\n      div\n      add\n      swap2\n      swap1\n      mod\n      swap1\n      sload\n      swap1\n      0x0100\n      exp\n      swap1\n      div\n      0xff\n      and\n        /* \"TicTacToe.sol\":3070:3118  games[gameId].board[2] == games[gameId].board[4] */\n      0x02\n      dup2\n      gt\n      iszero\n      tag_259\n      jumpi\n      tag_259\n      tag_44\n      jump\t// in\n    tag_259:\n        /* \"TicTacToe.sol\":3070:3075  games */\n      0x00\n        /* \"TicTacToe.sol\":3070:3083  games[gameId] */\n      dup4\n      dup2\n      mstore\n      0x20\n      dup2\n      swap1\n      mstore\n      0x40\n      swap1\n      keccak256\n        /* \"TicTacToe.sol\":3070:3092  games[gameId].board[2] */\n      dup1\n      sload\n        /* \"TicTacToe.sol\":3090:3091  2 */\n      0x02\n      swap1\n        /* \"TicTacToe.sol\":3070:3092  games[gameId].board[2] */\n      dup2\n      lt\n      tag_261\n      jumpi\n      tag_261\n      tag_67\n      jump\t// in\n    tag_261:\n      swap1\n      0x00\n      mstore\n      keccak256(0x00, 0x20)\n      swap1\n      0x20\n      swap2\n      dup3\n      dup3\n      div\n      add\n      swap2\n      swap1\n      mod\n      swap1\n      sload\n      swap1\n      0x0100\n      exp\n      swap1\n      div\n      0xff\n      and\n        /* \"TicTacToe.sol\":3070:3118  games[gameId].board[2] == games[gameId].board[4] */\n      0x02\n      dup2\n      gt\n      iszero\n      tag_264\n      jumpi\n      tag_264\n      tag_44\n      jump\t// in\n    tag_264:\n      eq\n        /* \"TicTacToe.sol\":3017:3118  games[gameId].board[2] != Player.None &&... */\n    tag_254:\n        /* \"TicTacToe.sol\":3017:3182  games[gameId].board[2] != Player.None &&... */\n      dup1\n      iszero\n      tag_265\n      jumpi\n      pop\n        /* \"TicTacToe.sol\":3160:3165  games */\n      0x00\n        /* \"TicTacToe.sol\":3160:3173  games[gameId] */\n      dup3\n      dup2\n      mstore\n      0x20\n      dup2\n      swap1\n      mstore\n      0x40\n      swap1\n      keccak256\n        /* \"TicTacToe.sol\":3160:3182  games[gameId].board[6] */\n      dup1\n      sload\n        /* \"TicTacToe.sol\":3180:3181  6 */\n      0x06\n      swap1\n        /* \"TicTacToe.sol\":3160:3182  games[gameId].board[6] */\n      dup2\n      lt\n      tag_267\n      jumpi\n      tag_267\n      tag_67\n      jump\t// in\n    tag_267:\n      swap1\n      0x00\n      mstore\n      keccak256(0x00, 0x20)\n      swap1\n      0x20\n      swap2\n      dup3\n      dup3\n      div\n      add\n      swap2\n      swap1\n      mod\n      swap1\n      sload\n      swap1\n      0x0100\n      exp\n      swap1\n      div\n      0xff\n      and\n        /* \"TicTacToe.sol\":3134:3182  games[gameId].board[2] == games[gameId].board[6] */\n      0x02\n      dup2\n      gt\n      iszero\n      tag_270\n      jumpi\n      tag_270\n      tag_44\n      jump\t// in\n    tag_270:\n        /* \"TicTacToe.sol\":3134:3139  games */\n      0x00\n        /* \"TicTacToe.sol\":3134:3147  games[gameId] */\n      dup4\n      dup2\n      mstore\n      0x20\n      dup2\n      swap1\n      mstore\n      0x40\n      swap1\n      keccak256\n        /* \"TicTacToe.sol\":3134:3156  games[gameId].board[2] */\n      dup1\n      sload\n        /* \"TicTacToe.sol\":3154:3155  2 */\n      0x02\n      swap1\n        /* \"TicTacToe.sol\":3134:3156  games[gameId].board[2] */\n      dup2\n      lt\n      tag_272\n      jumpi\n      tag_272\n      tag_67\n      jump\t// in\n    tag_272:\n      swap1\n      0x00\n      mstore\n      keccak256(0x00, 0x20)\n      swap1\n      0x20\n      swap2\n      dup3\n      dup3\n      div\n      add\n      swap2\n      swap1\n      mod\n      swap1\n      sload\n      swap1\n      0x0100\n      exp\n      swap1\n      div\n      0xff\n      and\n        /* \"TicTacToe.sol\":3134:3182  games[gameId].board[2] == games[gameId].board[6] */\n      0x02\n      dup2\n      gt\n      iszero\n      tag_275\n      jumpi\n      tag_275\n      tag_44\n      jump\t// in\n    tag_275:\n      eq\n        /* \"TicTacToe.sol\":3017:3182  games[gameId].board[2] != Player.None &&... */\n    tag_265:\n        /* \"TicTacToe.sol\":3000:3229  if (... */\n      iszero\n      tag_135\n      jumpi\n      pop\n        /* \"TicTacToe.sol\":3214:3218  true */\n      0x01\n      swap2\n        /* \"TicTacToe.sol\":1940:3258  function checkWin(uint256 gameId) internal view returns (bool) {... */\n      swap1\n      pop\n      jump\t// out\n        /* \"TicTacToe.sol\":3264:3511  function isBoardFull(uint256 gameId) internal view returns (bool) {... */\n    tag_108:\n        /* \"TicTacToe.sol\":3324:3328  bool */\n      0x00\n      dup1\n        /* \"TicTacToe.sol\":3340:3484  for (uint256 i = 0; i < 9; i++) {... */\n    tag_278:\n        /* \"TicTacToe.sol\":3364:3365  9 */\n      0x09\n        /* \"TicTacToe.sol\":3360:3361  i */\n      dup2\n        /* \"TicTacToe.sol\":3360:3365  i < 9 */\n      lt\n        /* \"TicTacToe.sol\":3340:3484  for (uint256 i = 0; i < 9; i++) {... */\n      iszero\n      tag_279\n      jumpi\n        /* \"TicTacToe.sol\":3416:3427  Player.None */\n      0x02\n        /* \"TicTacToe.sol\":3390:3395  games */\n      0x00\n        /* \"TicTacToe.sol\":3390:3403  games[gameId] */\n      dup5\n      dup2\n      mstore\n      0x20\n      dup2\n      swap1\n      mstore\n      0x40\n      swap1\n      keccak256\n        /* \"TicTacToe.sol\":3390:3412  games[gameId].board[i] */\n      dup1\n      sload\n        /* \"TicTacToe.sol\":3410:3411  i */\n      dup4\n      swap1\n        /* \"TicTacToe.sol\":3390:3412  games[gameId].board[i] */\n      dup2\n      lt\n      tag_284\n      jumpi\n      tag_284\n      tag_67\n      jump\t// in\n    tag_284:\n      swap1\n      0x00\n      mstore\n      keccak256(0x00, 0x20)\n      swap1\n      0x20\n      swap2\n      dup3\n      dup3\n      div\n      add\n      swap2\n      swap1\n      mod\n      swap1\n      sload\n      swap1\n      0x0100\n      exp\n      swap1\n      div\n      0xff\n      and\n        /* \"TicTacToe.sol\":3390:3427  games[gameId].board[i] == Player.None */\n      0x02\n      dup2\n      gt\n      iszero\n      tag_287\n      jumpi\n      tag_287\n      tag_44\n      jump\t// in\n    tag_287:\n      sub\n        /* \"TicTacToe.sol\":3386:3474  if (games[gameId].board[i] == Player.None) {... */\n      tag_288\n      jumpi\n      pop\n        /* \"TicTacToe.sol\":3454:3459  false */\n      0x00\n      swap3\n        /* \"TicTacToe.sol\":3264:3511  function isBoardFull(uint256 gameId) internal view returns (bool) {... */\n      swap2\n      pop\n      pop\n      jump\t// out\n        /* \"TicTacToe.sol\":3386:3474  if (games[gameId].board[i] == Player.None) {... */\n    tag_288:\n        /* \"TicTacToe.sol\":3367:3370  i++ */\n      dup1\n      tag_289\n      dup2\n      tag_72\n      jump\t// in\n    tag_289:\n      swap2\n      pop\n      pop\n        /* \"TicTacToe.sol\":3340:3484  for (uint256 i = 0; i < 9; i++) {... */\n      jump(tag_278)\n    tag_279:\n      pop\n        /* \"TicTacToe.sol\":3500:3504  true */\n      0x01\n      swap3\n        /* \"TicTacToe.sol\":3264:3511  function isBoardFull(uint256 gameId) internal view returns (bool) {... */\n      swap2\n      pop\n      pop\n      jump\t// out\n    tag_57:\n      dup3\n      dup1\n      sload\n      dup3\n      dup3\n      sstore\n      swap1\n      0x00\n      mstore\n      keccak256(0x00, 0x20)\n      swap1\n      0x1f\n      add\n      0x20\n      swap1\n      div\n      dup2\n      add\n      swap3\n      dup3\n      iszero\n      tag_290\n      jumpi\n      swap2\n      0x20\n      mul\n      dup3\n      add\n      0x00\n    tag_291:\n      dup4\n      dup3\n      gt\n      iszero\n      tag_292\n      jumpi\n      dup4\n      mload\n      dup4\n      dup3\n      0x0100\n      exp\n      dup2\n      sload\n      dup2\n      0xff\n      mul\n      not\n      and\n      swap1\n      dup4\n      0x02\n      dup2\n      gt\n      iszero\n      tag_294\n      jumpi\n      tag_294\n      tag_44\n      jump\t// in\n    tag_294:\n      mul\n      or\n      swap1\n      sstore\n      pop\n      swap3\n      0x20\n      add\n      swap3\n      0x01\n      add\n      0x20\n      dup2\n      0x00\n      add\n      div\n      swap3\n      dup4\n      add\n      swap3\n      0x01\n      sub\n      mul\n      jump(tag_291)\n    tag_292:\n      dup1\n      iszero\n      tag_295\n      jumpi\n      dup3\n      dup2\n      0x0100\n      exp\n      dup2\n      sload\n      swap1\n      0xff\n      mul\n      not\n      and\n      swap1\n      sstore\n      0x01\n      add\n      0x20\n      dup2\n      0x00\n      add\n      div\n      swap3\n      dup4\n      add\n      swap3\n      0x01\n      sub\n      mul\n      jump(tag_292)\n    tag_295:\n      pop\n    tag_290:\n      pop\n      tag_296\n      swap3\n      swap2\n      pop\n      tag_297\n      jump\t// in\n    tag_296:\n      pop\n      swap1\n      jump\t// out\n    tag_297:\n    tag_298:\n      dup1\n      dup3\n      gt\n      iszero\n      tag_296\n      jumpi\n      0x00\n      dup2\n      sstore\n      0x01\n      add\n      jump(tag_298)\n        /* \"#utility.yul\":14:194   */\n    tag_11:\n        /* \"#utility.yul\":73:79   */\n      0x00\n        /* \"#utility.yul\":126:128   */\n      0x20\n        /* \"#utility.yul\":114:123   */\n      dup3\n        /* \"#utility.yul\":105:112   */\n      dup5\n        /* \"#utility.yul\":101:124   */\n      sub\n        /* \"#utility.yul\":97:129   */\n      slt\n        /* \"#utility.yul\":94:146   */\n      iszero\n      tag_304\n      jumpi\n        /* \"#utility.yul\":142:143   */\n      0x00\n        /* \"#utility.yul\":139:140   */\n      dup1\n        /* \"#utility.yul\":132:144   */\n      revert\n        /* \"#utility.yul\":94:146   */\n    tag_304:\n      pop\n        /* \"#utility.yul\":165:188   */\n      calldataload\n      swap2\n        /* \"#utility.yul\":14:194   */\n      swap1\n      pop\n      jump\t// out\n        /* \"#utility.yul\":199:326   */\n    tag_44:\n        /* \"#utility.yul\":260:270   */\n      0x4e487b71\n        /* \"#utility.yul\":255:258   */\n      0xe0\n        /* \"#utility.yul\":251:271   */\n      shl\n        /* \"#utility.yul\":248:249   */\n      0x00\n        /* \"#utility.yul\":241:272   */\n      mstore\n        /* \"#utility.yul\":291:295   */\n      0x21\n        /* \"#utility.yul\":288:289   */\n      0x04\n        /* \"#utility.yul\":281:296   */\n      mstore\n        /* \"#utility.yul\":315:319   */\n      0x24\n        /* \"#utility.yul\":312:313   */\n      0x00\n        /* \"#utility.yul\":305:320   */\n      revert\n        /* \"#utility.yul\":331:565   */\n    tag_300:\n        /* \"#utility.yul\":409:410   */\n      0x03\n        /* \"#utility.yul\":402:407   */\n      dup2\n        /* \"#utility.yul\":399:411   */\n      lt\n        /* \"#utility.yul\":389:532   */\n      tag_307\n      jumpi\n        /* \"#utility.yul\":454:464   */\n      0x4e487b71\n        /* \"#utility.yul\":449:452   */\n      0xe0\n        /* \"#utility.yul\":445:465   */\n      shl\n        /* \"#utility.yul\":442:443   */\n      0x00\n        /* \"#utility.yul\":435:466   */\n      mstore\n        /* \"#utility.yul\":489:493   */\n      0x21\n        /* \"#utility.yul\":486:487   */\n      0x04\n        /* \"#utility.yul\":479:494   */\n      mstore\n        /* \"#utility.yul\":517:521   */\n      0x24\n        /* \"#utility.yul\":514:515   */\n      0x00\n        /* \"#utility.yul\":507:522   */\n      revert\n        /* \"#utility.yul\":389:532   */\n    tag_307:\n        /* \"#utility.yul\":541:559   */\n      swap1\n      mstore\n        /* \"#utility.yul\":331:565   */\n      jump\t// out\n        /* \"#utility.yul\":570:862   */\n    tag_14:\n        /* \"#utility.yul\":744:746   */\n      0x40\n        /* \"#utility.yul\":729:747   */\n      dup2\n      add\n        /* \"#utility.yul\":756:797   */\n      tag_309\n        /* \"#utility.yul\":733:742   */\n      dup3\n        /* \"#utility.yul\":779:785   */\n      dup6\n        /* \"#utility.yul\":756:797   */\n      tag_300\n      jump\t// in\n    tag_309:\n        /* \"#utility.yul\":806:856   */\n      tag_310\n        /* \"#utility.yul\":852:854   */\n      0x20\n        /* \"#utility.yul\":841:850   */\n      dup4\n        /* \"#utility.yul\":837:855   */\n      add\n        /* \"#utility.yul\":829:835   */\n      dup5\n        /* \"#utility.yul\":806:856   */\n      tag_300\n      jump\t// in\n    tag_310:\n        /* \"#utility.yul\":570:862   */\n      swap4\n      swap3\n      pop\n      pop\n      pop\n      jump\t// out\n        /* \"#utility.yul\":867:1066   */\n    tag_19:\n        /* \"#utility.yul\":1007:1009   */\n      0x20\n        /* \"#utility.yul\":992:1010   */\n      dup2\n      add\n        /* \"#utility.yul\":1019:1060   */\n      tag_312\n        /* \"#utility.yul\":996:1005   */\n      dup3\n        /* \"#utility.yul\":1042:1048   */\n      dup5\n        /* \"#utility.yul\":1019:1060   */\n      tag_300\n      jump\t// in\n    tag_312:\n        /* \"#utility.yul\":867:1066   */\n      swap3\n      swap2\n      pop\n      pop\n      jump\t// out\n        /* \"#utility.yul\":1071:1725   */\n    tag_28:\n        /* \"#utility.yul\":1248:1250   */\n      0x20\n        /* \"#utility.yul\":1300:1321   */\n      dup1\n      dup3\n      mstore\n        /* \"#utility.yul\":1370:1383   */\n      dup3\n      mload\n        /* \"#utility.yul\":1273:1291   */\n      dup3\n      dup3\n      add\n        /* \"#utility.yul\":1392:1414   */\n      dup2\n      swap1\n      mstore\n        /* \"#utility.yul\":1219:1223   */\n      0x00\n      swap2\n        /* \"#utility.yul\":1248:1250   */\n      swap1\n        /* \"#utility.yul\":1471:1486   */\n      dup5\n      dup3\n      add\n      swap1\n        /* \"#utility.yul\":1445:1447   */\n      0x40\n        /* \"#utility.yul\":1430:1448   */\n      dup6\n      add\n      swap1\n        /* \"#utility.yul\":1219:1223   */\n      dup5\n        /* \"#utility.yul\":1514:1699   */\n    tag_314:\n        /* \"#utility.yul\":1528:1534   */\n      dup2\n        /* \"#utility.yul\":1525:1526   */\n      dup2\n        /* \"#utility.yul\":1522:1535   */\n      lt\n        /* \"#utility.yul\":1514:1699   */\n      iszero\n      tag_316\n      jumpi\n        /* \"#utility.yul\":1577:1619   */\n      tag_317\n        /* \"#utility.yul\":1615:1618   */\n      dup4\n        /* \"#utility.yul\":1606:1612   */\n      dup6\n        /* \"#utility.yul\":1600:1613   */\n      mload\n        /* \"#utility.yul\":1577:1619   */\n      tag_300\n      jump\t// in\n    tag_317:\n        /* \"#utility.yul\":1674:1689   */\n      swap3\n      dup5\n      add\n      swap3\n        /* \"#utility.yul\":1639:1651   */\n      swap2\n      dup5\n      add\n      swap2\n        /* \"#utility.yul\":1550:1551   */\n      0x01\n        /* \"#utility.yul\":1543:1552   */\n      add\n        /* \"#utility.yul\":1514:1699   */\n      jump(tag_314)\n    tag_316:\n      pop\n        /* \"#utility.yul\":1716:1719   */\n      swap1\n      swap7\n        /* \"#utility.yul\":1071:1725   */\n      swap6\n      pop\n      pop\n      pop\n      pop\n      pop\n      pop\n      jump\t// out\n        /* \"#utility.yul\":1912:2160   */\n    tag_35:\n        /* \"#utility.yul\":1980:1986   */\n      0x00\n        /* \"#utility.yul\":1988:1994   */\n      dup1\n        /* \"#utility.yul\":2041:2043   */\n      0x40\n        /* \"#utility.yul\":2029:2038   */\n      dup4\n        /* \"#utility.yul\":2020:2027   */\n      dup6\n        /* \"#utility.yul\":2016:2039   */\n      sub\n        /* \"#utility.yul\":2012:2044   */\n      slt\n        /* \"#utility.yul\":2009:2061   */\n      iszero\n      tag_320\n      jumpi\n        /* \"#utility.yul\":2057:2058   */\n      0x00\n        /* \"#utility.yul\":2054:2055   */\n      dup1\n        /* \"#utility.yul\":2047:2059   */\n      revert\n        /* \"#utility.yul\":2009:2061   */\n    tag_320:\n      pop\n      pop\n        /* \"#utility.yul\":2080:2103   */\n      dup1\n      calldataload\n      swap3\n        /* \"#utility.yul\":2150:2152   */\n      0x20\n        /* \"#utility.yul\":2135:2153   */\n      swap1\n      swap2\n      add\n        /* \"#utility.yul\":2122:2154   */\n      calldataload\n      swap2\n      pop\n        /* \"#utility.yul\":1912:2160   */\n      jump\t// out\n        /* \"#utility.yul\":2596:2723   */\n    tag_67:\n        /* \"#utility.yul\":2657:2667   */\n      0x4e487b71\n        /* \"#utility.yul\":2652:2655   */\n      0xe0\n        /* \"#utility.yul\":2648:2668   */\n      shl\n        /* \"#utility.yul\":2645:2646   */\n      0x00\n        /* \"#utility.yul\":2638:2669   */\n      mstore\n        /* \"#utility.yul\":2688:2692   */\n      0x32\n        /* \"#utility.yul\":2685:2686   */\n      0x04\n        /* \"#utility.yul\":2678:2693   */\n      mstore\n        /* \"#utility.yul\":2712:2716   */\n      0x24\n        /* \"#utility.yul\":2709:2710   */\n      0x00\n        /* \"#utility.yul\":2702:2717   */\n      revert\n        /* \"#utility.yul\":2728:2855   */\n    tag_301:\n        /* \"#utility.yul\":2789:2799   */\n      0x4e487b71\n        /* \"#utility.yul\":2784:2787   */\n      0xe0\n        /* \"#utility.yul\":2780:2800   */\n      shl\n        /* \"#utility.yul\":2777:2778   */\n      0x00\n        /* \"#utility.yul\":2770:2801   */\n      mstore\n        /* \"#utility.yul\":2820:2824   */\n      0x11\n        /* \"#utility.yul\":2817:2818   */\n      0x04\n        /* \"#utility.yul\":2810:2825   */\n      mstore\n        /* \"#utility.yul\":2844:2848   */\n      0x24\n        /* \"#utility.yul\":2841:2842   */\n      0x00\n        /* \"#utility.yul\":2834:2849   */\n      revert\n        /* \"#utility.yul\":2860:2995   */\n    tag_72:\n        /* \"#utility.yul\":2899:2902   */\n      0x00\n        /* \"#utility.yul\":2920:2937   */\n      0x01\n      dup3\n      add\n        /* \"#utility.yul\":2917:2960   */\n      tag_327\n      jumpi\n        /* \"#utility.yul\":2940:2958   */\n      tag_327\n      tag_301\n      jump\t// in\n    tag_327:\n      pop\n        /* \"#utility.yul\":2987:2988   */\n      0x01\n        /* \"#utility.yul\":2976:2989   */\n      add\n      swap1\n        /* \"#utility.yul\":2860:2995   */\n      jump\t// out\n        /* \"#utility.yul\":4041:4311   */\n    tag_105:\n        /* \"#utility.yul\":4221:4246   */\n      dup3\n      dup2\n      mstore\n        /* \"#utility.yul\":4209:4211   */\n      0x40\n        /* \"#utility.yul\":4194:4212   */\n      dup2\n      add\n        /* \"#utility.yul\":4255:4305   */\n      tag_310\n        /* \"#utility.yul\":4301:4303   */\n      0x20\n        /* \"#utility.yul\":4286:4304   */\n      dup4\n      add\n        /* \"#utility.yul\":4278:4284   */\n      dup5\n        /* \"#utility.yul\":4255:4305   */\n      tag_300\n      jump\t// in\n        /* \"#utility.yul\":4316:4657   */\n    tag_123:\n        /* \"#utility.yul\":4524:4549   */\n      dup4\n      dup2\n      mstore\n        /* \"#utility.yul\":4580:4582   */\n      0x20\n        /* \"#utility.yul\":4565:4583   */\n      dup2\n      add\n        /* \"#utility.yul\":4558:4592   */\n      dup4\n      swap1\n      mstore\n        /* \"#utility.yul\":4512:4514   */\n      0x60\n        /* \"#utility.yul\":4497:4515   */\n      dup2\n      add\n        /* \"#utility.yul\":4601:4651   */\n      tag_334\n        /* \"#utility.yul\":4647:4649   */\n      0x40\n        /* \"#utility.yul\":4632:4650   */\n      dup4\n      add\n        /* \"#utility.yul\":4624:4630   */\n      dup5\n        /* \"#utility.yul\":4601:4651   */\n      tag_300\n      jump\t// in\n    tag_334:\n        /* \"#utility.yul\":4316:4657   */\n      swap5\n      swap4\n      pop\n      pop\n      pop\n      pop\n      jump\t// out\n        /* \"#utility.yul\":4662:4830   */\n    tag_144:\n        /* \"#utility.yul\":4735:4744   */\n      dup1\n      dup3\n      mul\n        /* \"#utility.yul\":4766:4775   */\n      dup2\n      iszero\n        /* \"#utility.yul\":4783:4798   */\n      dup3\n      dup3\n      div\n        /* \"#utility.yul\":4777:4799   */\n      dup5\n      eq\n        /* \"#utility.yul\":4763:4800   */\n      or\n        /* \"#utility.yul\":4753:4824   */\n      tag_312\n      jumpi\n        /* \"#utility.yul\":4804:4822   */\n      tag_312\n      tag_301\n      jump\t// in\n        /* \"#utility.yul\":4835:4960   */\n    tag_153:\n        /* \"#utility.yul\":4900:4909   */\n      dup1\n      dup3\n      add\n        /* \"#utility.yul\":4921:4931   */\n      dup1\n      dup3\n      gt\n        /* \"#utility.yul\":4918:4954   */\n      iszero\n      tag_312\n      jumpi\n        /* \"#utility.yul\":4934:4952   */\n      tag_312\n      tag_301\n      jump\t// in\n\n    auxdata: 0xa2646970667358221220a86287a55fad2b5d4d5a6fc4fa76703b0318ed51c17c25b1405f0d686f9b57c664736f6c63430008110033\n}\n",
				"bytecode": {
					"linkReferences": {},
					"object": "608060405234801561001057600080fd5b50611214806100206000396000f3fe608060405234801561001057600080fd5b50600436106100625760003560e01c8063117a5b901461006757806326638631146100ad5780634129b2c9146100e057806345e09e541461010b5780637255d7291461012b578063dea9456d14610141575b600080fd5b610096610075366004611044565b60006020819052908152604090206001015460ff8082169161010090041682565b6040516100a4929190611095565b60405180910390f35b6100d36100bb366004611044565b60009081526020819052604090206001015460ff1690565b6040516100a491906110b7565b6100d36100ee366004611044565b600090815260208190526040902060010154610100900460ff1690565b61011e610119366004611044565b610156565b6040516100a491906110cb565b6101336101e6565b6040519081526020016100a4565b61015461014f366004611116565b610393565b005b600081815260208181526040918290208054835181840281018401909452808452606093928301828280156101da57602002820191906000526020600020906000905b82829054906101000a900460ff1660028111156101b8576101b861105d565b8152602060019283018181049485019490930390920291018084116101995790505b50505050509050919050565b6000423360405160200161021692919091825260601b6bffffffffffffffffffffffff1916602082015260340190565b60408051601f1981840301815282825280516020909101206009606084018181526101a085019093529093508291906080830161012080368337019050508152602001600081526020016002905260008281526020818152604090912082518051919261028892849290910190610f7b565b50602082015160018083018054909160ff19909116908360028111156102b0576102b061105d565b0217905550604082015160018201805461ff0019166101008360028111156102da576102da61105d565b021790555090505060005b600981101561035c5760008281526020819052604090208054600291908390811061031257610312611138565b90600052602060002090602091828204019190066101000a81548160ff021916908360028111156103455761034561105d565b02179055508061035481611164565b9150506102e5565b506040518181527fbd19c47e9925eb6f7be8bb1c13a841e0240aaeaf17f217e90022e9c8eb66877f9060200160405180910390a190565b600981106103db5760405162461bcd60e51b815260206004820152601060248201526f24b73b30b634b2103837b9b4ba34b7b760811b60448201526064015b60405180910390fd5b600260008381526020819052604090208054839081106103fd576103fd611138565b90600052602060002090602091828204019190069054906101000a900460ff16600281111561042e5761042e61105d565b1461047b5760405162461bcd60e51b815260206004820152601960248201527f506f736974696f6e20616c7265616479206f636375706965640000000000000060448201526064016103d2565b6000828152602081905260409020600101546104999060ff16610708565b6001600160a01b0316336001600160a01b0316146104e95760405162461bcd60e51b815260206004820152600d60248201526c2737ba103cb7bab9103a3ab93760991b60448201526064016103d2565b60008281526020819052604090206001810154815460ff90911691908390811061051557610515611138565b90600052602060002090602091828204019190066101000a81548160ff021916908360028111156105485761054861105d565b021790555061055682610779565b156105e7576000828152602081905260409020600101805460ff8116919061ff00191661010083600281111561058e5761058e61105d565b0217905550600082815260208190526040908190206001015490517f132b564c6f96092065580fd28989d181dfbbfe4aa2fb7fb1eda8af68ba3073e0916105da91859160ff169061117d565b60405180910390a16106b1565b6105f082610ef2565b156106465760008281526020819052604090819020600101805461ff001916610200179055517f132b564c6f96092065580fd28989d181dfbbfe4aa2fb7fb1eda8af68ba3073e0906105da90849060029061117d565b60008281526020819052604081206001015460ff16600281111561066c5761066c61105d565b1461067857600061067b565b60015b600083815260208190526040902060019081018054909160ff19909116908360028111156106ab576106ab61105d565b02179055505b600082815260208190526040908190206001015490517f270e7680923c4530531e619b24c3702d2271ca1dfb2fd41a11b4a30edf23254a916106fc918591859160ff90911690611191565b60405180910390a15050565b60008082600281111561071d5761071d61105d565b0361073d5750731234567890123456789012345678901234567890919050565b60018260028111156107515761075161105d565b036107715750739876543210987654321098765432109876543210919050565b506000919050565b6000805b600381101561099457600260008481526020819052604090206107a18360036111b4565b815481106107b1576107b1611138565b90600052602060002090602091828204019190069054906101000a900460ff1660028111156107e2576107e261105d565b141580156108ac575060008381526020819052604090206108048260036111b4565b61080f9060016111cb565b8154811061081f5761081f611138565b90600052602060002090602091828204019190069054906101000a900460ff1660028111156108505761085061105d565b60008481526020819052604090206108698360036111b4565b8154811061087957610879611138565b90600052602060002090602091828204019190069054906101000a900460ff1660028111156108aa576108aa61105d565b145b8015610974575060008381526020819052604090206108cc8260036111b4565b6108d79060026111cb565b815481106108e7576108e7611138565b90600052602060002090602091828204019190069054906101000a900460ff1660028111156109185761091861105d565b60008481526020819052604090206109318360036111b4565b8154811061094157610941611138565b90600052602060002090602091828204019190069054906101000a900460ff1660028111156109725761097261105d565b145b156109825750600192915050565b8061098c81611164565b91505061077d565b5060005b6003811015610b7e57600260008481526020819052604090208054839081106109c3576109c3611138565b90600052602060002090602091828204019190069054906101000a900460ff1660028111156109f4576109f461105d565b14158015610aaa57506000838152602081905260409020610a168260036111cb565b81548110610a2657610a26611138565b90600052602060002090602091828204019190069054906101000a900460ff166002811115610a5757610a5761105d565b6000848152602081905260409020805483908110610a7757610a77611138565b90600052602060002090602091828204019190069054906101000a900460ff166002811115610aa857610aa861105d565b145b8015610b5e57506000838152602081905260409020610aca8260066111cb565b81548110610ada57610ada611138565b90600052602060002090602091828204019190069054906101000a900460ff166002811115610b0b57610b0b61105d565b6000848152602081905260409020805483908110610b2b57610b2b611138565b90600052602060002090602091828204019190069054906101000a900460ff166002811115610b5c57610b5c61105d565b145b15610b6c5750600192915050565b80610b7681611164565b915050610998565b506000828152602081905260408120805460029290610b9f57610b9f611138565b90600052602060002090602091828204019190069054906101000a900460ff166002811115610bd057610bd061105d565b14158015610c7d5750600082815260208190526040902080546004908110610bfa57610bfa611138565b90600052602060002090602091828204019190069054906101000a900460ff166002811115610c2b57610c2b61105d565b60008381526020819052604081208054909190610c4a57610c4a611138565b90600052602060002090602091828204019190069054906101000a900460ff166002811115610c7b57610c7b61105d565b145b8015610d285750600082815260208190526040902080546008908110610ca557610ca5611138565b90600052602060002090602091828204019190069054906101000a900460ff166002811115610cd657610cd661105d565b60008381526020819052604081208054909190610cf557610cf5611138565b90600052602060002090602091828204019190069054906101000a900460ff166002811115610d2657610d2661105d565b145b15610d3557506001919050565b6002600083815260208190526040902080546002908110610d5857610d58611138565b90600052602060002090602091828204019190069054906101000a900460ff166002811115610d8957610d8961105d565b14158015610e385750600082815260208190526040902080546004908110610db357610db3611138565b90600052602060002090602091828204019190069054906101000a900460ff166002811115610de457610de461105d565b600083815260208190526040902080546002908110610e0557610e05611138565b90600052602060002090602091828204019190069054906101000a900460ff166002811115610e3657610e3661105d565b145b8015610ee55750600082815260208190526040902080546006908110610e6057610e60611138565b90600052602060002090602091828204019190069054906101000a900460ff166002811115610e9157610e9161105d565b600083815260208190526040902080546002908110610eb257610eb2611138565b90600052602060002090602091828204019190069054906101000a900460ff166002811115610ee357610ee361105d565b145b1561077157506001919050565b6000805b6009811015610f725760026000848152602081905260409020805483908110610f2157610f21611138565b90600052602060002090602091828204019190069054906101000a900460ff166002811115610f5257610f5261105d565b03610f605750600092915050565b80610f6a81611164565b915050610ef6565b50600192915050565b82805482825590600052602060002090601f0160209004810192821561101f5791602002820160005b83821115610ff057835183826101000a81548160ff02191690836002811115610fcf57610fcf61105d565b02179055509260200192600101602081600001049283019260010302610fa4565b801561101d5782816101000a81549060ff0219169055600101602081600001049283019260010302610ff0565b505b5061102b92915061102f565b5090565b5b8082111561102b5760008155600101611030565b60006020828403121561105657600080fd5b5035919050565b634e487b7160e01b600052602160045260246000fd5b6003811061109157634e487b7160e01b600052602160045260246000fd5b9052565b604081016110a38285611073565b6110b06020830184611073565b9392505050565b602081016110c58284611073565b92915050565b6020808252825182820181905260009190848201906040850190845b8181101561110a576110fa838551611073565b92840192918401916001016110e7565b50909695505050505050565b6000806040838503121561112957600080fd5b50508035926020909101359150565b634e487b7160e01b600052603260045260246000fd5b634e487b7160e01b600052601160045260246000fd5b6000600182016111765761117661114e565b5060010190565b828152604081016110b06020830184611073565b83815260208101839052606081016111ac6040830184611073565b949350505050565b80820281158282048414176110c5576110c561114e565b808201808211156110c5576110c561114e56fea2646970667358221220a86287a55fad2b5d4d5a6fc4fa76703b0318ed51c17c25b1405f0d686f9b57c664736f6c63430008110033",
					"opcodes": "PUSH1 0x80 PUSH1 0x40 MSTORE CALLVALUE DUP1 ISZERO PUSH2 0x10 JUMPI PUSH1 0x0 DUP1 REVERT JUMPDEST POP PUSH2 0x1214 DUP1 PUSH2 0x20 PUSH1 0x0 CODECOPY PUSH1 0x0 RETURN INVALID PUSH1 0x80 PUSH1 0x40 MSTORE CALLVALUE DUP1 ISZERO PUSH2 0x10 JUMPI PUSH1 0x0 DUP1 REVERT JUMPDEST POP PUSH1 0x4 CALLDATASIZE LT PUSH2 0x62 JUMPI PUSH1 0x0 CALLDATALOAD PUSH1 0xE0 SHR DUP1 PUSH4 0x117A5B90 EQ PUSH2 0x67 JUMPI DUP1 PUSH4 0x26638631 EQ PUSH2 0xAD JUMPI DUP1 PUSH4 0x4129B2C9 EQ PUSH2 0xE0 JUMPI DUP1 PUSH4 0x45E09E54 EQ PUSH2 0x10B JUMPI DUP1 PUSH4 0x7255D729 EQ PUSH2 0x12B JUMPI DUP1 PUSH4 0xDEA9456D EQ PUSH2 0x141 JUMPI JUMPDEST PUSH1 0x0 DUP1 REVERT JUMPDEST PUSH2 0x96 PUSH2 0x75 CALLDATASIZE PUSH1 0x4 PUSH2 0x1044 JUMP JUMPDEST PUSH1 0x0 PUSH1 0x20 DUP2 SWAP1 MSTORE SWAP1 DUP2 MSTORE PUSH1 0x40 SWAP1 KECCAK256 PUSH1 0x1 ADD SLOAD PUSH1 0xFF DUP1 DUP3 AND SWAP2 PUSH2 0x100 SWAP1 DIV AND DUP3 JUMP JUMPDEST PUSH1 0x40 MLOAD PUSH2 0xA4 SWAP3 SWAP2 SWAP1 PUSH2 0x1095 JUMP JUMPDEST PUSH1 0x40 MLOAD DUP1 SWAP2 SUB SWAP1 RETURN JUMPDEST PUSH2 0xD3 PUSH2 0xBB CALLDATASIZE PUSH1 0x4 PUSH2 0x1044 JUMP JUMPDEST PUSH1 0x0 SWAP1 DUP2 MSTORE PUSH1 0x20 DUP2 SWAP1 MSTORE PUSH1 0x40 SWAP1 KECCAK256 PUSH1 0x1 ADD SLOAD PUSH1 0xFF AND SWAP1 JUMP JUMPDEST PUSH1 0x40 MLOAD PUSH2 0xA4 SWAP2 SWAP1 PUSH2 0x10B7 JUMP JUMPDEST PUSH2 0xD3 PUSH2 0xEE CALLDATASIZE PUSH1 0x4 PUSH2 0x1044 JUMP JUMPDEST PUSH1 0x0 SWAP1 DUP2 MSTORE PUSH1 0x20 DUP2 SWAP1 MSTORE PUSH1 0x40 SWAP1 KECCAK256 PUSH1 0x1 ADD SLOAD PUSH2 0x100 SWAP1 DIV PUSH1 0xFF AND SWAP1 JUMP JUMPDEST PUSH2 0x11E PUSH2 0x119 CALLDATASIZE PUSH1 0x4 PUSH2 0x1044 JUMP JUMPDEST PUSH2 0x156 JUMP JUMPDEST PUSH1 0x40 MLOAD PUSH2 0xA4 SWAP2 SWAP1 PUSH2 0x10CB JUMP JUMPDEST PUSH2 0x133 PUSH2 0x1E6 JUMP JUMPDEST PUSH1 0x40 MLOAD SWAP1 DUP2 MSTORE PUSH1 0x20 ADD PUSH2 0xA4 JUMP JUMPDEST PUSH2 0x154 PUSH2 0x14F CALLDATASIZE PUSH1 0x4 PUSH2 0x1116 JUMP JUMPDEST PUSH2 0x393 JUMP JUMPDEST STOP JUMPDEST PUSH1 0x0 DUP2 DUP2 MSTORE PUSH1 0x20 DUP2 DUP2 MSTORE PUSH1 0x40 SWAP2 DUP3 SWAP1 KECCAK256 DUP1 SLOAD DUP4 MLOAD DUP2 DUP5 MUL DUP2 ADD DUP5 ADD SWAP1 SWAP5 MSTORE DUP1 DUP5 MSTORE PUSH1 0x60 SWAP4 SWAP3 DUP4 ADD DUP3 DUP3 DUP1 ISZERO PUSH2 0x1DA JUMPI PUSH1 0x20 MUL DUP3 ADD SWAP2 SWAP1 PUSH1 0x0 MSTORE PUSH1 0x20 PUSH1 0x0 KECCAK256 SWAP1 PUSH1 0x0 SWAP1 JUMPDEST DUP3 DUP3 SWAP1 SLOAD SWAP1 PUSH2 0x100 EXP SWAP1 DIV PUSH1 0xFF AND PUSH1 0x2 DUP2 GT ISZERO PUSH2 0x1B8 JUMPI PUSH2 0x1B8 PUSH2 0x105D JUMP JUMPDEST DUP2 MSTORE PUSH1 0x20 PUSH1 0x1 SWAP3 DUP4 ADD DUP2 DUP2 DIV SWAP5 DUP6 ADD SWAP5 SWAP1 SWAP4 SUB SWAP1 SWAP3 MUL SWAP2 ADD DUP1 DUP5 GT PUSH2 0x199 JUMPI SWAP1 POP JUMPDEST POP POP POP POP POP SWAP1 POP SWAP2 SWAP1 POP JUMP JUMPDEST PUSH1 0x0 TIMESTAMP CALLER PUSH1 0x40 MLOAD PUSH1 0x20 ADD PUSH2 0x216 SWAP3 SWAP2 SWAP1 SWAP2 DUP3 MSTORE PUSH1 0x60 SHL PUSH12 0xFFFFFFFFFFFFFFFFFFFFFFFF NOT AND PUSH1 0x20 DUP3 ADD MSTORE PUSH1 0x34 ADD SWAP1 JUMP JUMPDEST PUSH1 0x40 DUP1 MLOAD PUSH1 0x1F NOT DUP2 DUP5 SUB ADD DUP2 MSTORE DUP3 DUP3 MSTORE DUP1 MLOAD PUSH1 0x20 SWAP1 SWAP2 ADD KECCAK256 PUSH1 0x9 PUSH1 0x60 DUP5 ADD DUP2 DUP2 MSTORE PUSH2 0x1A0 DUP6 ADD SWAP1 SWAP4 MSTORE SWAP1 SWAP4 POP DUP3 SWAP2 SWAP1 PUSH1 0x80 DUP4 ADD PUSH2 0x120 DUP1 CALLDATASIZE DUP4 CALLDATACOPY ADD SWAP1 POP POP DUP2 MSTORE PUSH1 0x20 ADD PUSH1 0x0 DUP2 MSTORE PUSH1 0x20 ADD PUSH1 0x2 SWAP1 MSTORE PUSH1 0x0 DUP3 DUP2 MSTORE PUSH1 0x20 DUP2 DUP2 MSTORE PUSH1 0x40 SWAP1 SWAP2 KECCAK256 DUP3 MLOAD DUP1 MLOAD SWAP2 SWAP3 PUSH2 0x288 SWAP3 DUP5 SWAP3 SWAP1 SWAP2 ADD SWAP1 PUSH2 0xF7B JUMP JUMPDEST POP PUSH1 0x20 DUP3 ADD MLOAD PUSH1 0x1 DUP1 DUP4 ADD DUP1 SLOAD SWAP1 SWAP2 PUSH1 0xFF NOT SWAP1 SWAP2 AND SWAP1 DUP4 PUSH1 0x2 DUP2 GT ISZERO PUSH2 0x2B0 JUMPI PUSH2 0x2B0 PUSH2 0x105D JUMP JUMPDEST MUL OR SWAP1 SSTORE POP PUSH1 0x40 DUP3 ADD MLOAD PUSH1 0x1 DUP3 ADD DUP1 SLOAD PUSH2 0xFF00 NOT AND PUSH2 0x100 DUP4 PUSH1 0x2 DUP2 GT ISZERO PUSH2 0x2DA JUMPI PUSH2 0x2DA PUSH2 0x105D JUMP JUMPDEST MUL OR SWAP1 SSTORE POP SWAP1 POP POP PUSH1 0x0 JUMPDEST PUSH1 0x9 DUP2 LT ISZERO PUSH2 0x35C JUMPI PUSH1 0x0 DUP3 DUP2 MSTORE PUSH1 0x20 DUP2 SWAP1 MSTORE PUSH1 0x40 SWAP1 KECCAK256 DUP1 SLOAD PUSH1 0x2 SWAP2 SWAP1 DUP4 SWAP1 DUP2 LT PUSH2 0x312 JUMPI PUSH2 0x312 PUSH2 0x1138 JUMP JUMPDEST SWAP1 PUSH1 0x0 MSTORE PUSH1 0x20 PUSH1 0x0 KECCAK256 SWAP1 PUSH1 0x20 SWAP2 DUP3 DUP3 DIV ADD SWAP2 SWAP1 MOD PUSH2 0x100 EXP DUP2 SLOAD DUP2 PUSH1 0xFF MUL NOT AND SWAP1 DUP4 PUSH1 0x2 DUP2 GT ISZERO PUSH2 0x345 JUMPI PUSH2 0x345 PUSH2 0x105D JUMP JUMPDEST MUL OR SWAP1 SSTORE POP DUP1 PUSH2 0x354 DUP2 PUSH2 0x1164 JUMP JUMPDEST SWAP2 POP POP PUSH2 0x2E5 JUMP JUMPDEST POP PUSH1 0x40 MLOAD DUP2 DUP2 MSTORE PUSH32 0xBD19C47E9925EB6F7BE8BB1C13A841E0240AAEAF17F217E90022E9C8EB66877F SWAP1 PUSH1 0x20 ADD PUSH1 0x40 MLOAD DUP1 SWAP2 SUB SWAP1 LOG1 SWAP1 JUMP JUMPDEST PUSH1 0x9 DUP2 LT PUSH2 0x3DB JUMPI PUSH1 0x40 MLOAD PUSH3 0x461BCD PUSH1 0xE5 SHL DUP2 MSTORE PUSH1 0x20 PUSH1 0x4 DUP3 ADD MSTORE PUSH1 0x10 PUSH1 0x24 DUP3 ADD MSTORE PUSH16 0x24B73B30B634B2103837B9B4BA34B7B7 PUSH1 0x81 SHL PUSH1 0x44 DUP3 ADD MSTORE PUSH1 0x64 ADD JUMPDEST PUSH1 0x40 MLOAD DUP1 SWAP2 SUB SWAP1 REVERT JUMPDEST PUSH1 0x2 PUSH1 0x0 DUP4 DUP2 MSTORE PUSH1 0x20 DUP2 SWAP1 MSTORE PUSH1 0x40 SWAP1 KECCAK256 DUP1 SLOAD DUP4 SWAP1 DUP2 LT PUSH2 0x3FD JUMPI PUSH2 0x3FD PUSH2 0x1138 JUMP JUMPDEST SWAP1 PUSH1 0x0 MSTORE PUSH1 0x20 PUSH1 0x0 KECCAK256 SWAP1 PUSH1 0x20 SWAP2 DUP3 DUP3 DIV ADD SWAP2 SWAP1 MOD SWAP1 SLOAD SWAP1 PUSH2 0x100 EXP SWAP1 DIV PUSH1 0xFF AND PUSH1 0x2 DUP2 GT ISZERO PUSH2 0x42E JUMPI PUSH2 0x42E PUSH2 0x105D JUMP JUMPDEST EQ PUSH2 0x47B JUMPI PUSH1 0x40 MLOAD PUSH3 0x461BCD PUSH1 0xE5 SHL DUP2 MSTORE PUSH1 0x20 PUSH1 0x4 DUP3 ADD MSTORE PUSH1 0x19 PUSH1 0x24 DUP3 ADD MSTORE PUSH32 0x506F736974696F6E20616C7265616479206F6363757069656400000000000000 PUSH1 0x44 DUP3 ADD MSTORE PUSH1 0x64 ADD PUSH2 0x3D2 JUMP JUMPDEST PUSH1 0x0 DUP3 DUP2 MSTORE PUSH1 0x20 DUP2 SWAP1 MSTORE PUSH1 0x40 SWAP1 KECCAK256 PUSH1 0x1 ADD SLOAD PUSH2 0x499 SWAP1 PUSH1 0xFF AND PUSH2 0x708 JUMP JUMPDEST PUSH1 0x1 PUSH1 0x1 PUSH1 0xA0 SHL SUB AND CALLER PUSH1 0x1 PUSH1 0x1 PUSH1 0xA0 SHL SUB AND EQ PUSH2 0x4E9 JUMPI PUSH1 0x40 MLOAD PUSH3 0x461BCD PUSH1 0xE5 SHL DUP2 MSTORE PUSH1 0x20 PUSH1 0x4 DUP3 ADD MSTORE PUSH1 0xD PUSH1 0x24 DUP3 ADD MSTORE PUSH13 0x2737BA103CB7BAB9103A3AB937 PUSH1 0x99 SHL PUSH1 0x44 DUP3 ADD MSTORE PUSH1 0x64 ADD PUSH2 0x3D2 JUMP JUMPDEST PUSH1 0x0 DUP3 DUP2 MSTORE PUSH1 0x20 DUP2 SWAP1 MSTORE PUSH1 0x40 SWAP1 KECCAK256 PUSH1 0x1 DUP2 ADD SLOAD DUP2 SLOAD PUSH1 0xFF SWAP1 SWAP2 AND SWAP2 SWAP1 DUP4 SWAP1 DUP2 LT PUSH2 0x515 JUMPI PUSH2 0x515 PUSH2 0x1138 JUMP JUMPDEST SWAP1 PUSH1 0x0 MSTORE PUSH1 0x20 PUSH1 0x0 KECCAK256 SWAP1 PUSH1 0x20 SWAP2 DUP3 DUP3 DIV ADD SWAP2 SWAP1 MOD PUSH2 0x100 EXP DUP2 SLOAD DUP2 PUSH1 0xFF MUL NOT AND SWAP1 DUP4 PUSH1 0x2 DUP2 GT ISZERO PUSH2 0x548 JUMPI PUSH2 0x548 PUSH2 0x105D JUMP JUMPDEST MUL OR SWAP1 SSTORE POP PUSH2 0x556 DUP3 PUSH2 0x779 JUMP JUMPDEST ISZERO PUSH2 0x5E7 JUMPI PUSH1 0x0 DUP3 DUP2 MSTORE PUSH1 0x20 DUP2 SWAP1 MSTORE PUSH1 0x40 SWAP1 KECCAK256 PUSH1 0x1 ADD DUP1 SLOAD PUSH1 0xFF DUP2 AND SWAP2 SWAP1 PUSH2 0xFF00 NOT AND PUSH2 0x100 DUP4 PUSH1 0x2 DUP2 GT ISZERO PUSH2 0x58E JUMPI PUSH2 0x58E PUSH2 0x105D JUMP JUMPDEST MUL OR SWAP1 SSTORE POP PUSH1 0x0 DUP3 DUP2 MSTORE PUSH1 0x20 DUP2 SWAP1 MSTORE PUSH1 0x40 SWAP1 DUP2 SWAP1 KECCAK256 PUSH1 0x1 ADD SLOAD SWAP1 MLOAD PUSH32 0x132B564C6F96092065580FD28989D181DFBBFE4AA2FB7FB1EDA8AF68BA3073E0 SWAP2 PUSH2 0x5DA SWAP2 DUP6 SWAP2 PUSH1 0xFF AND SWAP1 PUSH2 0x117D JUMP JUMPDEST PUSH1 0x40 MLOAD DUP1 SWAP2 SUB SWAP1 LOG1 PUSH2 0x6B1 JUMP JUMPDEST PUSH2 0x5F0 DUP3 PUSH2 0xEF2 JUMP JUMPDEST ISZERO PUSH2 0x646 JUMPI PUSH1 0x0 DUP3 DUP2 MSTORE PUSH1 0x20 DUP2 SWAP1 MSTORE PUSH1 0x40 SWAP1 DUP2 SWAP1 KECCAK256 PUSH1 0x1 ADD DUP1 SLOAD PUSH2 0xFF00 NOT AND PUSH2 0x200 OR SWAP1 SSTORE MLOAD PUSH32 0x132B564C6F96092065580FD28989D181DFBBFE4AA2FB7FB1EDA8AF68BA3073E0 SWAP1 PUSH2 0x5DA SWAP1 DUP5 SWAP1 PUSH1 0x2 SWAP1 PUSH2 0x117D JUMP JUMPDEST PUSH1 0x0 DUP3 DUP2 MSTORE PUSH1 0x20 DUP2 SWAP1 MSTORE PUSH1 0x40 DUP2 KECCAK256 PUSH1 0x1 ADD SLOAD PUSH1 0xFF AND PUSH1 0x2 DUP2 GT ISZERO PUSH2 0x66C JUMPI PUSH2 0x66C PUSH2 0x105D JUMP JUMPDEST EQ PUSH2 0x678 JUMPI PUSH1 0x0 PUSH2 0x67B JUMP JUMPDEST PUSH1 0x1 JUMPDEST PUSH1 0x0 DUP4 DUP2 MSTORE PUSH1 0x20 DUP2 SWAP1 MSTORE PUSH1 0x40 SWAP1 KECCAK256 PUSH1 0x1 SWAP1 DUP2 ADD DUP1 SLOAD SWAP1 SWAP2 PUSH1 0xFF NOT SWAP1 SWAP2 AND SWAP1 DUP4 PUSH1 0x2 DUP2 GT ISZERO PUSH2 0x6AB JUMPI PUSH2 0x6AB PUSH2 0x105D JUMP JUMPDEST MUL OR SWAP1 SSTORE POP JUMPDEST PUSH1 0x0 DUP3 DUP2 MSTORE PUSH1 0x20 DUP2 SWAP1 MSTORE PUSH1 0x40 SWAP1 DUP2 SWAP1 KECCAK256 PUSH1 0x1 ADD SLOAD SWAP1 MLOAD PUSH32 0x270E7680923C4530531E619B24C3702D2271CA1DFB2FD41A11B4A30EDF23254A SWAP2 PUSH2 0x6FC SWAP2 DUP6 SWAP2 DUP6 SWAP2 PUSH1 0xFF SWAP1 SWAP2 AND SWAP1 PUSH2 0x1191 JUMP JUMPDEST PUSH1 0x40 MLOAD DUP1 SWAP2 SUB SWAP1 LOG1 POP POP JUMP JUMPDEST PUSH1 0x0 DUP1 DUP3 PUSH1 0x2 DUP2 GT ISZERO PUSH2 0x71D JUMPI PUSH2 0x71D PUSH2 0x105D JUMP JUMPDEST SUB PUSH2 0x73D JUMPI POP PUSH20 0x1234567890123456789012345678901234567890 SWAP2 SWAP1 POP JUMP JUMPDEST PUSH1 0x1 DUP3 PUSH1 0x2 DUP2 GT ISZERO PUSH2 0x751 JUMPI PUSH2 0x751 PUSH2 0x105D JUMP JUMPDEST SUB PUSH2 0x771 JUMPI POP PUSH20 0x9876543210987654321098765432109876543210 SWAP2 SWAP1 POP JUMP JUMPDEST POP PUSH1 0x0 SWAP2 SWAP1 POP JUMP JUMPDEST PUSH1 0x0 DUP1 JUMPDEST PUSH1 0x3 DUP2 LT ISZERO PUSH2 0x994 JUMPI PUSH1 0x2 PUSH1 0x0 DUP5 DUP2 MSTORE PUSH1 0x20 DUP2 SWAP1 MSTORE PUSH1 0x40 SWAP1 KECCAK256 PUSH2 0x7A1 DUP4 PUSH1 0x3 PUSH2 0x11B4 JUMP JUMPDEST DUP2 SLOAD DUP2 LT PUSH2 0x7B1 JUMPI PUSH2 0x7B1 PUSH2 0x1138 JUMP JUMPDEST SWAP1 PUSH1 0x0 MSTORE PUSH1 0x20 PUSH1 0x0 KECCAK256 SWAP1 PUSH1 0x20 SWAP2 DUP3 DUP3 DIV ADD SWAP2 SWAP1 MOD SWAP1 SLOAD SWAP1 PUSH2 0x100 EXP SWAP1 DIV PUSH1 0xFF AND PUSH1 0x2 DUP2 GT ISZERO PUSH2 0x7E2 JUMPI PUSH2 0x7E2 PUSH2 0x105D JUMP JUMPDEST EQ ISZERO DUP1 ISZERO PUSH2 0x8AC JUMPI POP PUSH1 0x0 DUP4 DUP2 MSTORE PUSH1 0x20 DUP2 SWAP1 MSTORE PUSH1 0x40 SWAP1 KECCAK256 PUSH2 0x804 DUP3 PUSH1 0x3 PUSH2 0x11B4 JUMP JUMPDEST PUSH2 0x80F SWAP1 PUSH1 0x1 PUSH2 0x11CB JUMP JUMPDEST DUP2 SLOAD DUP2 LT PUSH2 0x81F JUMPI PUSH2 0x81F PUSH2 0x1138 JUMP JUMPDEST SWAP1 PUSH1 0x0 MSTORE PUSH1 0x20 PUSH1 0x0 KECCAK256 SWAP1 PUSH1 0x20 SWAP2 DUP3 DUP3 DIV ADD SWAP2 SWAP1 MOD SWAP1 SLOAD SWAP1 PUSH2 0x100 EXP SWAP1 DIV PUSH1 0xFF AND PUSH1 0x2 DUP2 GT ISZERO PUSH2 0x850 JUMPI PUSH2 0x850 PUSH2 0x105D JUMP JUMPDEST PUSH1 0x0 DUP5 DUP2 MSTORE PUSH1 0x20 DUP2 SWAP1 MSTORE PUSH1 0x40 SWAP1 KECCAK256 PUSH2 0x869 DUP4 PUSH1 0x3 PUSH2 0x11B4 JUMP JUMPDEST DUP2 SLOAD DUP2 LT PUSH2 0x879 JUMPI PUSH2 0x879 PUSH2 0x1138 JUMP JUMPDEST SWAP1 PUSH1 0x0 MSTORE PUSH1 0x20 PUSH1 0x0 KECCAK256 SWAP1 PUSH1 0x20 SWAP2 DUP3 DUP3 DIV ADD SWAP2 SWAP1 MOD SWAP1 SLOAD SWAP1 PUSH2 0x100 EXP SWAP1 DIV PUSH1 0xFF AND PUSH1 0x2 DUP2 GT ISZERO PUSH2 0x8AA JUMPI PUSH2 0x8AA PUSH2 0x105D JUMP JUMPDEST EQ JUMPDEST DUP1 ISZERO PUSH2 0x974 JUMPI POP PUSH1 0x0 DUP4 DUP2 MSTORE PUSH1 0x20 DUP2 SWAP1 MSTORE PUSH1 0x40 SWAP1 KECCAK256 PUSH2 0x8CC DUP3 PUSH1 0x3 PUSH2 0x11B4 JUMP JUMPDEST PUSH2 0x8D7 SWAP1 PUSH1 0x2 PUSH2 0x11CB JUMP JUMPDEST DUP2 SLOAD DUP2 LT PUSH2 0x8E7 JUMPI PUSH2 0x8E7 PUSH2 0x1138 JUMP JUMPDEST SWAP1 PUSH1 0x0 MSTORE PUSH1 0x20 PUSH1 0x0 KECCAK256 SWAP1 PUSH1 0x20 SWAP2 DUP3 DUP3 DIV ADD SWAP2 SWAP1 MOD SWAP1 SLOAD SWAP1 PUSH2 0x100 EXP SWAP1 DIV PUSH1 0xFF AND PUSH1 0x2 DUP2 GT ISZERO PUSH2 0x918 JUMPI PUSH2 0x918 PUSH2 0x105D JUMP JUMPDEST PUSH1 0x0 DUP5 DUP2 MSTORE PUSH1 0x20 DUP2 SWAP1 MSTORE PUSH1 0x40 SWAP1 KECCAK256 PUSH2 0x931 DUP4 PUSH1 0x3 PUSH2 0x11B4 JUMP JUMPDEST DUP2 SLOAD DUP2 LT PUSH2 0x941 JUMPI PUSH2 0x941 PUSH2 0x1138 JUMP JUMPDEST SWAP1 PUSH1 0x0 MSTORE PUSH1 0x20 PUSH1 0x0 KECCAK256 SWAP1 PUSH1 0x20 SWAP2 DUP3 DUP3 DIV ADD SWAP2 SWAP1 MOD SWAP1 SLOAD SWAP1 PUSH2 0x100 EXP SWAP1 DIV PUSH1 0xFF AND PUSH1 0x2 DUP2 GT ISZERO PUSH2 0x972 JUMPI PUSH2 0x972 PUSH2 0x105D JUMP JUMPDEST EQ JUMPDEST ISZERO PUSH2 0x982 JUMPI POP PUSH1 0x1 SWAP3 SWAP2 POP POP JUMP JUMPDEST DUP1 PUSH2 0x98C DUP2 PUSH2 0x1164 JUMP JUMPDEST SWAP2 POP POP PUSH2 0x77D JUMP JUMPDEST POP PUSH1 0x0 JUMPDEST PUSH1 0x3 DUP2 LT ISZERO PUSH2 0xB7E JUMPI PUSH1 0x2 PUSH1 0x0 DUP5 DUP2 MSTORE PUSH1 0x20 DUP2 SWAP1 MSTORE PUSH1 0x40 SWAP1 KECCAK256 DUP1 SLOAD DUP4 SWAP1 DUP2 LT PUSH2 0x9C3 JUMPI PUSH2 0x9C3 PUSH2 0x1138 JUMP JUMPDEST SWAP1 PUSH1 0x0 MSTORE PUSH1 0x20 PUSH1 0x0 KECCAK256 SWAP1 PUSH1 0x20 SWAP2 DUP3 DUP3 DIV ADD SWAP2 SWAP1 MOD SWAP1 SLOAD SWAP1 PUSH2 0x100 EXP SWAP1 DIV PUSH1 0xFF AND PUSH1 0x2 DUP2 GT ISZERO PUSH2 0x9F4 JUMPI PUSH2 0x9F4 PUSH2 0x105D JUMP JUMPDEST EQ ISZERO DUP1 ISZERO PUSH2 0xAAA JUMPI POP PUSH1 0x0 DUP4 DUP2 MSTORE PUSH1 0x20 DUP2 SWAP1 MSTORE PUSH1 0x40 SWAP1 KECCAK256 PUSH2 0xA16 DUP3 PUSH1 0x3 PUSH2 0x11CB JUMP JUMPDEST DUP2 SLOAD DUP2 LT PUSH2 0xA26 JUMPI PUSH2 0xA26 PUSH2 0x1138 JUMP JUMPDEST SWAP1 PUSH1 0x0 MSTORE PUSH1 0x20 PUSH1 0x0 KECCAK256 SWAP1 PUSH1 0x20 SWAP2 DUP3 DUP3 DIV ADD SWAP2 SWAP1 MOD SWAP1 SLOAD SWAP1 PUSH2 0x100 EXP SWAP1 DIV PUSH1 0xFF AND PUSH1 0x2 DUP2 GT ISZERO PUSH2 0xA57 JUMPI PUSH2 0xA57 PUSH2 0x105D JUMP JUMPDEST PUSH1 0x0 DUP5 DUP2 MSTORE PUSH1 0x20 DUP2 SWAP1 MSTORE PUSH1 0x40 SWAP1 KECCAK256 DUP1 SLOAD DUP4 SWAP1 DUP2 LT PUSH2 0xA77 JUMPI PUSH2 0xA77 PUSH2 0x1138 JUMP JUMPDEST SWAP1 PUSH1 0x0 MSTORE PUSH1 0x20 PUSH1 0x0 KECCAK256 SWAP1 PUSH1 0x20 SWAP2 DUP3 DUP3 DIV ADD SWAP2 SWAP1 MOD SWAP1 SLOAD SWAP1 PUSH2 0x100 EXP SWAP1 DIV PUSH1 0xFF AND PUSH1 0x2 DUP2 GT ISZERO PUSH2 0xAA8 JUMPI PUSH2 0xAA8 PUSH2 0x105D JUMP JUMPDEST EQ JUMPDEST DUP1 ISZERO PUSH2 0xB5E JUMPI POP PUSH1 0x0 DUP4 DUP2 MSTORE PUSH1 0x20 DUP2 SWAP1 MSTORE PUSH1 0x40 SWAP1 KECCAK256 PUSH2 0xACA DUP3 PUSH1 0x6 PUSH2 0x11CB JUMP JUMPDEST DUP2 SLOAD DUP2 LT PUSH2 0xADA JUMPI PUSH2 0xADA PUSH2 0x1138 JUMP JUMPDEST SWAP1 PUSH1 0x0 MSTORE PUSH1 0x20 PUSH1 0x0 KECCAK256 SWAP1 PUSH1 0x20 SWAP2 DUP3 DUP3 DIV ADD SWAP2 SWAP1 MOD SWAP1 SLOAD SWAP1 PUSH2 0x100 EXP SWAP1 DIV PUSH1 0xFF AND PUSH1 0x2 DUP2 GT ISZERO PUSH2 0xB0B JUMPI PUSH2 0xB0B PUSH2 0x105D JUMP JUMPDEST PUSH1 0x0 DUP5 DUP2 MSTORE PUSH1 0x20 DUP2 SWAP1 MSTORE PUSH1 0x40 SWAP1 KECCAK256 DUP1 SLOAD DUP4 SWAP1 DUP2 LT PUSH2 0xB2B JUMPI PUSH2 0xB2B PUSH2 0x1138 JUMP JUMPDEST SWAP1 PUSH1 0x0 MSTORE PUSH1 0x20 PUSH1 0x0 KECCAK256 SWAP1 PUSH1 0x20 SWAP2 DUP3 DUP3 DIV ADD SWAP2 SWAP1 MOD SWAP1 SLOAD SWAP1 PUSH2 0x100 EXP SWAP1 DIV PUSH1 0xFF AND PUSH1 0x2 DUP2 GT ISZERO PUSH2 0xB5C JUMPI PUSH2 0xB5C PUSH2 0x105D JUMP JUMPDEST EQ JUMPDEST ISZERO PUSH2 0xB6C JUMPI POP PUSH1 0x1 SWAP3 SWAP2 POP POP JUMP JUMPDEST DUP1 PUSH2 0xB76 DUP2 PUSH2 0x1164 JUMP JUMPDEST SWAP2 POP POP PUSH2 0x998 JUMP JUMPDEST POP PUSH1 0x0 DUP3 DUP2 MSTORE PUSH1 0x20 DUP2 SWAP1 MSTORE PUSH1 0x40 DUP2 KECCAK256 DUP1 SLOAD PUSH1 0x2 SWAP3 SWAP1 PUSH2 0xB9F JUMPI PUSH2 0xB9F PUSH2 0x1138 JUMP JUMPDEST SWAP1 PUSH1 0x0 MSTORE PUSH1 0x20 PUSH1 0x0 KECCAK256 SWAP1 PUSH1 0x20 SWAP2 DUP3 DUP3 DIV ADD SWAP2 SWAP1 MOD SWAP1 SLOAD SWAP1 PUSH2 0x100 EXP SWAP1 DIV PUSH1 0xFF AND PUSH1 0x2 DUP2 GT ISZERO PUSH2 0xBD0 JUMPI PUSH2 0xBD0 PUSH2 0x105D JUMP JUMPDEST EQ ISZERO DUP1 ISZERO PUSH2 0xC7D JUMPI POP PUSH1 0x0 DUP3 DUP2 MSTORE PUSH1 0x20 DUP2 SWAP1 MSTORE PUSH1 0x40 SWAP1 KECCAK256 DUP1 SLOAD PUSH1 0x4 SWAP1 DUP2 LT PUSH2 0xBFA JUMPI PUSH2 0xBFA PUSH2 0x1138 JUMP JUMPDEST SWAP1 PUSH1 0x0 MSTORE PUSH1 0x20 PUSH1 0x0 KECCAK256 SWAP1 PUSH1 0x20 SWAP2 DUP3 DUP3 DIV ADD SWAP2 SWAP1 MOD SWAP1 SLOAD SWAP1 PUSH2 0x100 EXP SWAP1 DIV PUSH1 0xFF AND PUSH1 0x2 DUP2 GT ISZERO PUSH2 0xC2B JUMPI PUSH2 0xC2B PUSH2 0x105D JUMP JUMPDEST PUSH1 0x0 DUP4 DUP2 MSTORE PUSH1 0x20 DUP2 SWAP1 MSTORE PUSH1 0x40 DUP2 KECCAK256 DUP1 SLOAD SWAP1 SWAP2 SWAP1 PUSH2 0xC4A JUMPI PUSH2 0xC4A PUSH2 0x1138 JUMP JUMPDEST SWAP1 PUSH1 0x0 MSTORE PUSH1 0x20 PUSH1 0x0 KECCAK256 SWAP1 PUSH1 0x20 SWAP2 DUP3 DUP3 DIV ADD SWAP2 SWAP1 MOD SWAP1 SLOAD SWAP1 PUSH2 0x100 EXP SWAP1 DIV PUSH1 0xFF AND PUSH1 0x2 DUP2 GT ISZERO PUSH2 0xC7B JUMPI PUSH2 0xC7B PUSH2 0x105D JUMP JUMPDEST EQ JUMPDEST DUP1 ISZERO PUSH2 0xD28 JUMPI POP PUSH1 0x0 DUP3 DUP2 MSTORE PUSH1 0x20 DUP2 SWAP1 MSTORE PUSH1 0x40 SWAP1 KECCAK256 DUP1 SLOAD PUSH1 0x8 SWAP1 DUP2 LT PUSH2 0xCA5 JUMPI PUSH2 0xCA5 PUSH2 0x1138 JUMP JUMPDEST SWAP1 PUSH1 0x0 MSTORE PUSH1 0x20 PUSH1 0x0 KECCAK256 SWAP1 PUSH1 0x20 SWAP2 DUP3 DUP3 DIV ADD SWAP2 SWAP1 MOD SWAP1 SLOAD SWAP1 PUSH2 0x100 EXP SWAP1 DIV PUSH1 0xFF AND PUSH1 0x2 DUP2 GT ISZERO PUSH2 0xCD6 JUMPI PUSH2 0xCD6 PUSH2 0x105D JUMP JUMPDEST PUSH1 0x0 DUP4 DUP2 MSTORE PUSH1 0x20 DUP2 SWAP1 MSTORE PUSH1 0x40 DUP2 KECCAK256 DUP1 SLOAD SWAP1 SWAP2 SWAP1 PUSH2 0xCF5 JUMPI PUSH2 0xCF5 PUSH2 0x1138 JUMP JUMPDEST SWAP1 PUSH1 0x0 MSTORE PUSH1 0x20 PUSH1 0x0 KECCAK256 SWAP1 PUSH1 0x20 SWAP2 DUP3 DUP3 DIV ADD SWAP2 SWAP1 MOD SWAP1 SLOAD SWAP1 PUSH2 0x100 EXP SWAP1 DIV PUSH1 0xFF AND PUSH1 0x2 DUP2 GT ISZERO PUSH2 0xD26 JUMPI PUSH2 0xD26 PUSH2 0x105D JUMP JUMPDEST EQ JUMPDEST ISZERO PUSH2 0xD35 JUMPI POP PUSH1 0x1 SWAP2 SWAP1 POP JUMP JUMPDEST PUSH1 0x2 PUSH1 0x0 DUP4 DUP2 MSTORE PUSH1 0x20 DUP2 SWAP1 MSTORE PUSH1 0x40 SWAP1 KECCAK256 DUP1 SLOAD PUSH1 0x2 SWAP1 DUP2 LT PUSH2 0xD58 JUMPI PUSH2 0xD58 PUSH2 0x1138 JUMP JUMPDEST SWAP1 PUSH1 0x0 MSTORE PUSH1 0x20 PUSH1 0x0 KECCAK256 SWAP1 PUSH1 0x20 SWAP2 DUP3 DUP3 DIV ADD SWAP2 SWAP1 MOD SWAP1 SLOAD SWAP1 PUSH2 0x100 EXP SWAP1 DIV PUSH1 0xFF AND PUSH1 0x2 DUP2 GT ISZERO PUSH2 0xD89 JUMPI PUSH2 0xD89 PUSH2 0x105D JUMP JUMPDEST EQ ISZERO DUP1 ISZERO PUSH2 0xE38 JUMPI POP PUSH1 0x0 DUP3 DUP2 MSTORE PUSH1 0x20 DUP2 SWAP1 MSTORE PUSH1 0x40 SWAP1 KECCAK256 DUP1 SLOAD PUSH1 0x4 SWAP1 DUP2 LT PUSH2 0xDB3 JUMPI PUSH2 0xDB3 PUSH2 0x1138 JUMP JUMPDEST SWAP1 PUSH1 0x0 MSTORE PUSH1 0x20 PUSH1 0x0 KECCAK256 SWAP1 PUSH1 0x20 SWAP2 DUP3 DUP3 DIV ADD SWAP2 SWAP1 MOD SWAP1 SLOAD SWAP1 PUSH2 0x100 EXP SWAP1 DIV PUSH1 0xFF AND PUSH1 0x2 DUP2 GT ISZERO PUSH2 0xDE4 JUMPI PUSH2 0xDE4 PUSH2 0x105D JUMP JUMPDEST PUSH1 0x0 DUP4 DUP2 MSTORE PUSH1 0x20 DUP2 SWAP1 MSTORE PUSH1 0x40 SWAP1 KECCAK256 DUP1 SLOAD PUSH1 0x2 SWAP1 DUP2 LT PUSH2 0xE05 JUMPI PUSH2 0xE05 PUSH2 0x1138 JUMP JUMPDEST SWAP1 PUSH1 0x0 MSTORE PUSH1 0x20 PUSH1 0x0 KECCAK256 SWAP1 PUSH1 0x20 SWAP2 DUP3 DUP3 DIV ADD SWAP2 SWAP1 MOD SWAP1 SLOAD SWAP1 PUSH2 0x100 EXP SWAP1 DIV PUSH1 0xFF AND PUSH1 0x2 DUP2 GT ISZERO PUSH2 0xE36 JUMPI PUSH2 0xE36 PUSH2 0x105D JUMP JUMPDEST EQ JUMPDEST DUP1 ISZERO PUSH2 0xEE5 JUMPI POP PUSH1 0x0 DUP3 DUP2 MSTORE PUSH1 0x20 DUP2 SWAP1 MSTORE PUSH1 0x40 SWAP1 KECCAK256 DUP1 SLOAD PUSH1 0x6 SWAP1 DUP2 LT PUSH2 0xE60 JUMPI PUSH2 0xE60 PUSH2 0x1138 JUMP JUMPDEST SWAP1 PUSH1 0x0 MSTORE PUSH1 0x20 PUSH1 0x0 KECCAK256 SWAP1 PUSH1 0x20 SWAP2 DUP3 DUP3 DIV ADD SWAP2 SWAP1 MOD SWAP1 SLOAD SWAP1 PUSH2 0x100 EXP SWAP1 DIV PUSH1 0xFF AND PUSH1 0x2 DUP2 GT ISZERO PUSH2 0xE91 JUMPI PUSH2 0xE91 PUSH2 0x105D JUMP JUMPDEST PUSH1 0x0 DUP4 DUP2 MSTORE PUSH1 0x20 DUP2 SWAP1 MSTORE PUSH1 0x40 SWAP1 KECCAK256 DUP1 SLOAD PUSH1 0x2 SWAP1 DUP2 LT PUSH2 0xEB2 JUMPI PUSH2 0xEB2 PUSH2 0x1138 JUMP JUMPDEST SWAP1 PUSH1 0x0 MSTORE PUSH1 0x20 PUSH1 0x0 KECCAK256 SWAP1 PUSH1 0x20 SWAP2 DUP3 DUP3 DIV ADD SWAP2 SWAP1 MOD SWAP1 SLOAD SWAP1 PUSH2 0x100 EXP SWAP1 DIV PUSH1 0xFF AND PUSH1 0x2 DUP2 GT ISZERO PUSH2 0xEE3 JUMPI PUSH2 0xEE3 PUSH2 0x105D JUMP JUMPDEST EQ JUMPDEST ISZERO PUSH2 0x771 JUMPI POP PUSH1 0x1 SWAP2 SWAP1 POP JUMP JUMPDEST PUSH1 0x0 DUP1 JUMPDEST PUSH1 0x9 DUP2 LT ISZERO PUSH2 0xF72 JUMPI PUSH1 0x2 PUSH1 0x0 DUP5 DUP2 MSTORE PUSH1 0x20 DUP2 SWAP1 MSTORE PUSH1 0x40 SWAP1 KECCAK256 DUP1 SLOAD DUP4 SWAP1 DUP2 LT PUSH2 0xF21 JUMPI PUSH2 0xF21 PUSH2 0x1138 JUMP JUMPDEST SWAP1 PUSH1 0x0 MSTORE PUSH1 0x20 PUSH1 0x0 KECCAK256 SWAP1 PUSH1 0x20 SWAP2 DUP3 DUP3 DIV ADD SWAP2 SWAP1 MOD SWAP1 SLOAD SWAP1 PUSH2 0x100 EXP SWAP1 DIV PUSH1 0xFF AND PUSH1 0x2 DUP2 GT ISZERO PUSH2 0xF52 JUMPI PUSH2 0xF52 PUSH2 0x105D JUMP JUMPDEST SUB PUSH2 0xF60 JUMPI POP PUSH1 0x0 SWAP3 SWAP2 POP POP JUMP JUMPDEST DUP1 PUSH2 0xF6A DUP2 PUSH2 0x1164 JUMP JUMPDEST SWAP2 POP POP PUSH2 0xEF6 JUMP JUMPDEST POP PUSH1 0x1 SWAP3 SWAP2 POP POP JUMP JUMPDEST DUP3 DUP1 SLOAD DUP3 DUP3 SSTORE SWAP1 PUSH1 0x0 MSTORE PUSH1 0x20 PUSH1 0x0 KECCAK256 SWAP1 PUSH1 0x1F ADD PUSH1 0x20 SWAP1 DIV DUP2 ADD SWAP3 DUP3 ISZERO PUSH2 0x101F JUMPI SWAP2 PUSH1 0x20 MUL DUP3 ADD PUSH1 0x0 JUMPDEST DUP4 DUP3 GT ISZERO PUSH2 0xFF0 JUMPI DUP4 MLOAD DUP4 DUP3 PUSH2 0x100 EXP DUP2 SLOAD DUP2 PUSH1 0xFF MUL NOT AND SWAP1 DUP4 PUSH1 0x2 DUP2 GT ISZERO PUSH2 0xFCF JUMPI PUSH2 0xFCF PUSH2 0x105D JUMP JUMPDEST MUL OR SWAP1 SSTORE POP SWAP3 PUSH1 0x20 ADD SWAP3 PUSH1 0x1 ADD PUSH1 0x20 DUP2 PUSH1 0x0 ADD DIV SWAP3 DUP4 ADD SWAP3 PUSH1 0x1 SUB MUL PUSH2 0xFA4 JUMP JUMPDEST DUP1 ISZERO PUSH2 0x101D JUMPI DUP3 DUP2 PUSH2 0x100 EXP DUP2 SLOAD SWAP1 PUSH1 0xFF MUL NOT AND SWAP1 SSTORE PUSH1 0x1 ADD PUSH1 0x20 DUP2 PUSH1 0x0 ADD DIV SWAP3 DUP4 ADD SWAP3 PUSH1 0x1 SUB MUL PUSH2 0xFF0 JUMP JUMPDEST POP JUMPDEST POP PUSH2 0x102B SWAP3 SWAP2 POP PUSH2 0x102F JUMP JUMPDEST POP SWAP1 JUMP JUMPDEST JUMPDEST DUP1 DUP3 GT ISZERO PUSH2 0x102B JUMPI PUSH1 0x0 DUP2 SSTORE PUSH1 0x1 ADD PUSH2 0x1030 JUMP JUMPDEST PUSH1 0x0 PUSH1 0x20 DUP3 DUP5 SUB SLT ISZERO PUSH2 0x1056 JUMPI PUSH1 0x0 DUP1 REVERT JUMPDEST POP CALLDATALOAD SWAP2 SWAP1 POP JUMP JUMPDEST PUSH4 0x4E487B71 PUSH1 0xE0 SHL PUSH1 0x0 MSTORE PUSH1 0x21 PUSH1 0x4 MSTORE PUSH1 0x24 PUSH1 0x0 REVERT JUMPDEST PUSH1 0x3 DUP2 LT PUSH2 0x1091 JUMPI PUSH4 0x4E487B71 PUSH1 0xE0 SHL PUSH1 0x0 MSTORE PUSH1 0x21 PUSH1 0x4 MSTORE PUSH1 0x24 PUSH1 0x0 REVERT JUMPDEST SWAP1 MSTORE JUMP JUMPDEST PUSH1 0x40 DUP2 ADD PUSH2 0x10A3 DUP3 DUP6 PUSH2 0x1073 JUMP JUMPDEST PUSH2 0x10B0 PUSH1 0x20 DUP4 ADD DUP5 PUSH2 0x1073 JUMP JUMPDEST SWAP4 SWAP3 POP POP POP JUMP JUMPDEST PUSH1 0x20 DUP2 ADD PUSH2 0x10C5 DUP3 DUP5 PUSH2 0x1073 JUMP JUMPDEST SWAP3 SWAP2 POP POP JUMP JUMPDEST PUSH1 0x20 DUP1 DUP3 MSTORE DUP3 MLOAD DUP3 DUP3 ADD DUP2 SWAP1 MSTORE PUSH1 0x0 SWAP2 SWAP1 DUP5 DUP3 ADD SWAP1 PUSH1 0x40 DUP6 ADD SWAP1 DUP5 JUMPDEST DUP2 DUP2 LT ISZERO PUSH2 0x110A JUMPI PUSH2 0x10FA DUP4 DUP6 MLOAD PUSH2 0x1073 JUMP JUMPDEST SWAP3 DUP5 ADD SWAP3 SWAP2 DUP5 ADD SWAP2 PUSH1 0x1 ADD PUSH2 0x10E7 JUMP JUMPDEST POP SWAP1 SWAP7 SWAP6 POP POP POP POP POP POP JUMP JUMPDEST PUSH1 0x0 DUP1 PUSH1 0x40 DUP4 DUP6 SUB SLT ISZERO PUSH2 0x1129 JUMPI PUSH1 0x0 DUP1 REVERT JUMPDEST POP POP DUP1 CALLDATALOAD SWAP3 PUSH1 0x20 SWAP1 SWAP2 ADD CALLDATALOAD SWAP2 POP JUMP JUMPDEST PUSH4 0x4E487B71 PUSH1 0xE0 SHL PUSH1 0x0 MSTORE PUSH1 0x32 PUSH1 0x4 MSTORE PUSH1 0x24 PUSH1 0x0 REVERT JUMPDEST PUSH4 0x4E487B71 PUSH1 0xE0 SHL PUSH1 0x0 MSTORE PUSH1 0x11 PUSH1 0x4 MSTORE PUSH1 0x24 PUSH1 0x0 REVERT JUMPDEST PUSH1 0x0 PUSH1 0x1 DUP3 ADD PUSH2 0x1176 JUMPI PUSH2 0x1176 PUSH2 0x114E JUMP JUMPDEST POP PUSH1 0x1 ADD SWAP1 JUMP JUMPDEST DUP3 DUP2 MSTORE PUSH1 0x40 DUP2 ADD PUSH2 0x10B0 PUSH1 0x20 DUP4 ADD DUP5 PUSH2 0x1073 JUMP JUMPDEST DUP4 DUP2 MSTORE PUSH1 0x20 DUP2 ADD DUP4 SWAP1 MSTORE PUSH1 0x60 DUP2 ADD PUSH2 0x11AC PUSH1 0x40 DUP4 ADD DUP5 PUSH2 0x1073 JUMP JUMPDEST SWAP5 SWAP4 POP POP POP POP JUMP JUMPDEST DUP1 DUP3 MUL DUP2 ISZERO DUP3 DUP3 DIV DUP5 EQ OR PUSH2 0x10C5 JUMPI PUSH2 0x10C5 PUSH2 0x114E JUMP JUMPDEST DUP1 DUP3 ADD DUP1 DUP3 GT ISZERO PUSH2 0x10C5 JUMPI PUSH2 0x10C5 PUSH2 0x114E JUMP INVALID LOG2 PUSH5 0x6970667358 0x22 SLT KECCAK256 0xA8 PUSH3 0x87A55F 0xAD 0x2B 0x5D 0x4D GAS PUSH16 0xC4FA76703B0318ED51C17C25B1405F0D PUSH9 0x6F9B57C664736F6C63 NUMBER STOP ADDMOD GT STOP CALLER "
				},
				"gasEstimates": {
					"creation": {
						"codeDepositCost": "925600",
						"executionCost": "962",
						"totalCost": "926562"
					},
					"external": {
						"createGame()": "infinite",
						"games(uint256)": "infinite",
						"getBoard(uint256)": "infinite",
						"getCurrentPlayer(uint256)": "2534",
						"getWinner(uint256)": "2567",
						"makeMove(uint256,uint256)": "infinite"
					},
					"internal": {
						"checkWin(uint256)": "infinite",
						"isBoardFull(uint256)": "infinite",
						"playerToAddress(enum TicTacToe.Player)": "135"
					}
				},
				"methodIdentifiers": {
					"createGame()": "7255d729",
					"games(uint256)": "117a5b90",
					"getBoard(uint256)": "45e09e54",
					"getCurrentPlayer(uint256)": "26638631",
					"getWinner(uint256)": "4129b2c9",
					"makeMove(uint256,uint256)": "dea9456d"
				}
			},
			"storageLayout": {
				"storage": [
					{
						"astId": 21,
						"contract": "TicTacToe.sol:TicTacToe",
						"label": "games",
						"offset": 0,
						"slot": "0",
						"type": "t_mapping(t_uint256,t_struct(Game)16_storage)"
					}
				],
				"types": {
					"t_array(t_enum(Player)5)dyn_storage": {
						"base": "t_enum(Player)5",
						"encoding": "dynamic_array",
						"label": "enum TicTacToe.Player[]",
						"numberOfBytes": "32"
					},
					"t_enum(Player)5": {
						"encoding": "inplace",
						"label": "enum TicTacToe.Player",
						"numberOfBytes": "1"
					},
					"t_mapping(t_uint256,t_struct(Game)16_storage)": {
						"encoding": "mapping",
						"key": "t_uint256",
						"label": "mapping(uint256 => struct TicTacToe.Game)",
						"numberOfBytes": "32",
						"value": "t_struct(Game)16_storage"
					},
					"t_struct(Game)16_storage": {
						"encoding": "inplace",
						"label": "struct TicTacToe.Game",
						"members": [
							{
								"astId": 9,
								"contract": "TicTacToe.sol:TicTacToe",
								"label": "board",
								"offset": 0,
								"slot": "0",
								"type": "t_array(t_enum(Player)5)dyn_storage"
							},
							{
								"astId": 12,
								"contract": "TicTacToe.sol:TicTacToe",
								"label": "currentPlayer",
								"offset": 0,
								"slot": "1",
								"type": "t_enum(Player)5"
							},
							{
								"astId": 15,
								"contract": "TicTacToe.sol:TicTacToe",
								"label": "winner",
								"offset": 1,
								"slot": "1",
								"type": "t_enum(Player)5"
							}
						],
						"numberOfBytes": "64"
					},
					"t_uint256": {
						"encoding": "inplace",
						"label": "uint256",
						"numberOfBytes": "32"
					}
				}
			},
			"userdoc": {
				"kind": "user",
				"methods": {},
				"version": 1
			}
		}
	}
}